{
  "contractName": "_Attendant",
  "abi": [
    {
      "inputs": [
        {
          "internalType": "address",
          "name": "_adss",
          "type": "address"
        },
        {
          "internalType": "uint256",
          "name": "_id",
          "type": "uint256"
        },
        {
          "internalType": "string",
          "name": "_name",
          "type": "string"
        },
        {
          "internalType": "uint256",
          "name": "_age",
          "type": "uint256"
        },
        {
          "internalType": "string",
          "name": "_gender",
          "type": "string"
        },
        {
          "internalType": "uint256",
          "name": "_phone_no",
          "type": "uint256"
        }
      ],
      "name": "addAttendant",
      "outputs": [],
      "stateMutability": "nonpayable",
      "type": "function"
    },
    {
      "inputs": [
        {
          "internalType": "uint256",
          "name": "_patient_id",
          "type": "uint256"
        },
        {
          "internalType": "string",
          "name": "_patient_name",
          "type": "string"
        },
        {
          "internalType": "string",
          "name": "_attendent_id",
          "type": "string"
        }
      ],
      "name": "attendPatient",
      "outputs": [],
      "stateMutability": "nonpayable",
      "type": "function"
    },
    {
      "inputs": [
        {
          "internalType": "uint256",
          "name": "_patient_id",
          "type": "uint256"
        },
        {
          "internalType": "string",
          "name": "_medicine",
          "type": "string"
        },
        {
          "internalType": "string",
          "name": "_quantity",
          "type": "string"
        },
        {
          "internalType": "string",
          "name": "_time",
          "type": "string"
        },
        {
          "internalType": "string",
          "name": "_date",
          "type": "string"
        }
      ],
      "name": "medTime",
      "outputs": [],
      "stateMutability": "nonpayable",
      "type": "function"
    },
    {
      "inputs": [
        {
          "internalType": "uint256",
          "name": "_patient_id",
          "type": "uint256"
        },
        {
          "internalType": "string",
          "name": "_date",
          "type": "string"
        }
      ],
      "name": "get_MedData",
      "outputs": [
        {
          "internalType": "string",
          "name": "",
          "type": "string"
        },
        {
          "internalType": "uint256",
          "name": "",
          "type": "uint256"
        },
        {
          "internalType": "string[]",
          "name": "",
          "type": "string[]"
        },
        {
          "internalType": "string[]",
          "name": "",
          "type": "string[]"
        },
        {
          "internalType": "string[]",
          "name": "",
          "type": "string[]"
        }
      ],
      "stateMutability": "view",
      "type": "function"
    },
    {
      "inputs": [
        {
          "internalType": "uint256",
          "name": "_attendant_id",
          "type": "uint256"
        }
      ],
      "name": "getAttendantInfo",
      "outputs": [
        {
          "internalType": "uint256",
          "name": "",
          "type": "uint256"
        },
        {
          "internalType": "string",
          "name": "",
          "type": "string"
        },
        {
          "internalType": "uint256",
          "name": "",
          "type": "uint256"
        },
        {
          "internalType": "string",
          "name": "",
          "type": "string"
        },
        {
          "internalType": "uint256",
          "name": "",
          "type": "uint256"
        },
        {
          "internalType": "address",
          "name": "",
          "type": "address"
        }
      ],
      "stateMutability": "view",
      "type": "function"
    },
    {
      "inputs": [
        {
          "internalType": "uint256",
          "name": "_pat_id",
          "type": "uint256"
        }
      ],
      "name": "setPatientExistence",
      "outputs": [],
      "stateMutability": "nonpayable",
      "type": "function"
    }
  ],
  "bytecode": "0x608060405234801561001057600080fd5b50612175806100206000396000f3fe608060405234801561001057600080fd5b50600436106100625760003560e01c8063255358e11461006757806347351bbd146100835780634dc5bb0d1461009f5780635fede16a146100bb57806388a3274e146100f0578063d75b95ec1461010c575b600080fd5b610081600480360381019061007c919061157a565b610140565b005b61009d6004803603810190610098919061163f565b610386565b005b6100b960048036038101906100b4919061172a565b610563565b005b6100d560048036038101906100d091906117b5565b6107dc565b6040516100e796959493929190611888565b60405180910390f35b61010a600480360381019061010591906117b5565b6109d5565b005b610126600480360381019061012191906118f7565b610a04565b604051610137959493929190611a5f565b60405180910390f35b60011515601160008873ffffffffffffffffffffffffffffffffffffffff1673ffffffffffffffffffffffffffffffffffffffff16815260200190815260200160002060009054906101000a900460ff16151514610343576001601160008873ffffffffffffffffffffffffffffffffffffffff1673ffffffffffffffffffffffffffffffffffffffff16815260200190815260200160002060006101000a81548160ff021916908315150217905550846000800181905550836000600101908161020b9190611cda565b508260006002018190555081600060030190816102289190611cda565b508060006004018190555085600060050160006101000a81548173ffffffffffffffffffffffffffffffffffffffff021916908373ffffffffffffffffffffffffffffffffffffffff1602179055506000600d600087815260200190815260200160002060008201548160000155600182018160010190816102aa9190611dc2565b5060028201548160020155600382018160030190816102c99190611dc2565b50600482015481600401556005820160009054906101000a900473ffffffffffffffffffffffffffffffffffffffff168160050160006101000a81548173ffffffffffffffffffffffffffffffffffffffff021916908373ffffffffffffffffffffffffffffffffffffffff16021790555090505061037e565b6040517f08c379a000000000000000000000000000000000000000000000000000000000815260040161037590611ef6565b60405180910390fd5b505050505050565b60011515601160003373ffffffffffffffffffffffffffffffffffffffff1673ffffffffffffffffffffffffffffffffffffffff16815260200190815260200160002060009054906101000a900460ff16151514610419576040517f08c379a000000000000000000000000000000000000000000000000000000000815260040161041090611f62565b60405180910390fd5b60011515600e600087815260200190815260200160002060060160009054906101000a900460ff16151514610483576040517f08c379a000000000000000000000000000000000000000000000000000000000815260040161047a90611fce565b60405180910390fd5b6000600f6000878152602001908152602001600020826040516104a6919061202a565b9081526020016040518091039020905080600301859080600181540180825580915050600190039060005260206000200160009091909190915090816104ec9190611cda565b5080600401849080600181540180825580915050600190039060005260206000200160009091909190915090816105239190611cda565b50806005018390806001815401808255809150506001900390600052602060002001600090919091909150908161055a9190611cda565b50505050505050565b60011515601160003373ffffffffffffffffffffffffffffffffffffffff1673ffffffffffffffffffffffffffffffffffffffff16815260200190815260200160002060009054906101000a900460ff161515146105f6576040517f08c379a00000000000000000000000000000000000000000000000000000000081526004016105ed90611f62565b60405180910390fd5b600115156010600085815260200190815260200160002060009054906101000a900460ff1615151461065d576040517f08c379a00000000000000000000000000000000000000000000000000000000081526004016106549061208d565b60405180910390fd5b60011515600e600085815260200190815260200160002060060160009054906101000a900460ff1615151461079c578260066000018190555081600660010190816106a89190611cda565b5080600660020190816106bb9190611cda565b5060016006800160006101000a81548160ff0219169083151502179055506006600e6000858152602001908152602001600020600082015481600001556001820181600101908161070c9190611dc2565b50600282018160020190816107219190611dc2565b5060038201816003019080546107389291906112ae565b50600482018160040190805461074f9291906112ae565b5060058201816005019080546107669291906112ae565b506006820160009054906101000a900460ff168160060160006101000a81548160ff0219169083151502179055509050506107d7565b6040517f08c379a00000000000000000000000000000000000000000000000000000000081526004016107ce9061211f565b60405180910390fd5b505050565b60006060600060606000806000600d60008981526020019081526020016000206040518060c00160405290816000820154815260200160018201805461082190611afd565b80601f016020809104026020016040519081016040528092919081815260200182805461084d90611afd565b801561089a5780601f1061086f5761010080835404028352916020019161089a565b820191906000526020600020905b81548152906001019060200180831161087d57829003601f168201915b50505050508152602001600282015481526020016003820180546108bd90611afd565b80601f01602080910402602001604051908101604052809291908181526020018280546108e990611afd565b80156109365780601f1061090b57610100808354040283529160200191610936565b820191906000526020600020905b81548152906001019060200180831161091957829003601f168201915b50505050508152602001600482015481526020016005820160009054906101000a900473ffffffffffffffffffffffffffffffffffffffff1673ffffffffffffffffffffffffffffffffffffffff1673ffffffffffffffffffffffffffffffffffffffff16815250509050806000015181602001518260400151836060015184608001518560a001519650965096509650965096505091939550919395565b60016010600083815260200190815260200160002060006101000a81548160ff02191690831515021790555050565b60606000606080606060011515600e600089815260200190815260200160002060060160009054906101000a900460ff16151514610a77576040517f08c379a0000000000000000000000000000000000000000000000000000000008152600401610a6e90611fce565b60405180910390fd5b6000600e60008981526020019081526020016000206040518060e001604052908160008201548152602001600182018054610ab190611afd565b80601f0160208091040260200160405190810160405280929190818152602001828054610add90611afd565b8015610b2a5780601f10610aff57610100808354040283529160200191610b2a565b820191906000526020600020905b815481529060010190602001808311610b0d57829003601f168201915b50505050508152602001600282018054610b4390611afd565b80601f0160208091040260200160405190810160405280929190818152602001828054610b6f90611afd565b8015610bbc5780601f10610b9157610100808354040283529160200191610bbc565b820191906000526020600020905b815481529060010190602001808311610b9f57829003601f168201915b5050505050815260200160038201805480602002602001604051908101604052809291908181526020016000905b82821015610c96578382906000526020600020018054610c0990611afd565b80601f0160208091040260200160405190810160405280929190818152602001828054610c3590611afd565b8015610c825780601f10610c5757610100808354040283529160200191610c82565b820191906000526020600020905b815481529060010190602001808311610c6557829003601f168201915b505050505081526020019060010190610bea565b50505050815260200160048201805480602002602001604051908101604052809291908181526020016000905b82821015610d6f578382906000526020600020018054610ce290611afd565b80601f0160208091040260200160405190810160405280929190818152602001828054610d0e90611afd565b8015610d5b5780601f10610d3057610100808354040283529160200191610d5b565b820191906000526020600020905b815481529060010190602001808311610d3e57829003601f168201915b505050505081526020019060010190610cc3565b50505050815260200160058201805480602002602001604051908101604052809291908181526020016000905b82821015610e48578382906000526020600020018054610dbb90611afd565b80601f0160208091040260200160405190810160405280929190818152602001828054610de790611afd565b8015610e345780601f10610e0957610100808354040283529160200191610e34565b820191906000526020600020905b815481529060010190602001808311610e1757829003601f168201915b505050505081526020019060010190610d9c565b5050505081526020016006820160009054906101000a900460ff16151515158152505090506000600f60008a815260200190815260200160002088604051610e90919061202a565b90815260200160405180910390206040518060e001604052908160008201548152602001600182018054610ec390611afd565b80601f0160208091040260200160405190810160405280929190818152602001828054610eef90611afd565b8015610f3c5780601f10610f1157610100808354040283529160200191610f3c565b820191906000526020600020905b815481529060010190602001808311610f1f57829003601f168201915b50505050508152602001600282018054610f5590611afd565b80601f0160208091040260200160405190810160405280929190818152602001828054610f8190611afd565b8015610fce5780601f10610fa357610100808354040283529160200191610fce565b820191906000526020600020905b815481529060010190602001808311610fb157829003601f168201915b5050505050815260200160038201805480602002602001604051908101604052809291908181526020016000905b828210156110a857838290600052602060002001805461101b90611afd565b80601f016020809104026020016040519081016040528092919081815260200182805461104790611afd565b80156110945780601f1061106957610100808354040283529160200191611094565b820191906000526020600020905b81548152906001019060200180831161107757829003601f168201915b505050505081526020019060010190610ffc565b50505050815260200160048201805480602002602001604051908101604052809291908181526020016000905b828210156111815783829060005260206000200180546110f490611afd565b80601f016020809104026020016040519081016040528092919081815260200182805461112090611afd565b801561116d5780601f106111425761010080835404028352916020019161116d565b820191906000526020600020905b81548152906001019060200180831161115057829003601f168201915b5050505050815260200190600101906110d5565b50505050815260200160058201805480602002602001604051908101604052809291908181526020016000905b8282101561125a5783829060005260206000200180546111cd90611afd565b80601f01602080910402602001604051908101604052809291908181526020018280546111f990611afd565b80156112465780601f1061121b57610100808354040283529160200191611246565b820191906000526020600020905b81548152906001019060200180831161122957829003601f168201915b5050505050815260200190600101906111ae565b5050505081526020016006820160009054906101000a900460ff161515151581525050905081602001518260000151826060015183608001518460a001519650965096509650965050509295509295909350565b8280548282559060005260206000209081019282156112fa5760005260206000209182015b828111156112f957828290816112e99190611dc2565b50916001019190600101906112d3565b5b509050611307919061130b565b5090565b5b8082111561132b5760008181611322919061132f565b5060010161130c565b5090565b50805461133b90611afd565b6000825580601f1061134d575061136c565b601f01602090049060005260206000209081019061136b919061136f565b5b50565b5b80821115611388576000816000905550600101611370565b5090565b6000604051905090565b600080fd5b600080fd5b600073ffffffffffffffffffffffffffffffffffffffff82169050919050565b60006113cb826113a0565b9050919050565b6113db816113c0565b81146113e657600080fd5b50565b6000813590506113f8816113d2565b92915050565b6000819050919050565b611411816113fe565b811461141c57600080fd5b50565b60008135905061142e81611408565b92915050565b600080fd5b600080fd5b6000601f19601f8301169050919050565b7f4e487b7100000000000000000000000000000000000000000000000000000000600052604160045260246000fd5b6114878261143e565b810181811067ffffffffffffffff821117156114a6576114a561144f565b5b80604052505050565b60006114b961138c565b90506114c5828261147e565b919050565b600067ffffffffffffffff8211156114e5576114e461144f565b5b6114ee8261143e565b9050602081019050919050565b82818337600083830152505050565b600061151d611518846114ca565b6114af565b90508281526020810184848401111561153957611538611439565b5b6115448482856114fb565b509392505050565b600082601f83011261156157611560611434565b5b813561157184826020860161150a565b91505092915050565b60008060008060008060c0878903121561159757611596611396565b5b60006115a589828a016113e9565b96505060206115b689828a0161141f565b955050604087013567ffffffffffffffff8111156115d7576115d661139b565b5b6115e389828a0161154c565b94505060606115f489828a0161141f565b935050608087013567ffffffffffffffff8111156116155761161461139b565b5b61162189828a0161154c565b92505060a061163289828a0161141f565b9150509295509295509295565b600080600080600060a0868803121561165b5761165a611396565b5b60006116698882890161141f565b955050602086013567ffffffffffffffff81111561168a5761168961139b565b5b6116968882890161154c565b945050604086013567ffffffffffffffff8111156116b7576116b661139b565b5b6116c38882890161154c565b935050606086013567ffffffffffffffff8111156116e4576116e361139b565b5b6116f08882890161154c565b925050608086013567ffffffffffffffff8111156117115761171061139b565b5b61171d8882890161154c565b9150509295509295909350565b60008060006060848603121561174357611742611396565b5b60006117518682870161141f565b935050602084013567ffffffffffffffff8111156117725761177161139b565b5b61177e8682870161154c565b925050604084013567ffffffffffffffff81111561179f5761179e61139b565b5b6117ab8682870161154c565b9150509250925092565b6000602082840312156117cb576117ca611396565b5b60006117d98482850161141f565b91505092915050565b6117eb816113fe565b82525050565b600081519050919050565b600082825260208201905092915050565b60005b8381101561182b578082015181840152602081019050611810565b8381111561183a576000848401525b50505050565b600061184b826117f1565b61185581856117fc565b935061186581856020860161180d565b61186e8161143e565b840191505092915050565b611882816113c0565b82525050565b600060c08201905061189d60008301896117e2565b81810360208301526118af8188611840565b90506118be60408301876117e2565b81810360608301526118d08186611840565b90506118df60808301856117e2565b6118ec60a0830184611879565b979650505050505050565b6000806040838503121561190e5761190d611396565b5b600061191c8582860161141f565b925050602083013567ffffffffffffffff81111561193d5761193c61139b565b5b6119498582860161154c565b9150509250929050565b600081519050919050565b600082825260208201905092915050565b6000819050602082019050919050565b600082825260208201905092915050565b600061199b826117f1565b6119a5818561197f565b93506119b581856020860161180d565b6119be8161143e565b840191505092915050565b60006119d58383611990565b905092915050565b6000602082019050919050565b60006119f582611953565b6119ff818561195e565b935083602082028501611a118561196f565b8060005b85811015611a4d5784840389528151611a2e85826119c9565b9450611a39836119dd565b925060208a01995050600181019050611a15565b50829750879550505050505092915050565b600060a0820190508181036000830152611a798188611840565b9050611a8860208301876117e2565b8181036040830152611a9a81866119ea565b90508181036060830152611aae81856119ea565b90508181036080830152611ac281846119ea565b90509695505050505050565b7f4e487b7100000000000000000000000000000000000000000000000000000000600052602260045260246000fd5b60006002820490506001821680611b1557607f821691505b602082108103611b2857611b27611ace565b5b50919050565b60008190508160005260206000209050919050565b60006020601f8301049050919050565b600082821b905092915050565b600060088302611b907fffffffffffffffffffffffffffffffffffffffffffffffffffffffffffffffff82611b53565b611b9a8683611b53565b95508019841693508086168417925050509392505050565b6000819050919050565b6000611bd7611bd2611bcd846113fe565b611bb2565b6113fe565b9050919050565b6000819050919050565b611bf183611bbc565b611c05611bfd82611bde565b848454611b60565b825550505050565b600090565b611c1a611c0d565b611c25818484611be8565b505050565b5b81811015611c4957611c3e600082611c12565b600181019050611c2b565b5050565b601f821115611c8e57611c5f81611b2e565b611c6884611b43565b81016020851015611c77578190505b611c8b611c8385611b43565b830182611c2a565b50505b505050565b600082821c905092915050565b6000611cb160001984600802611c93565b1980831691505092915050565b6000611cca8383611ca0565b9150826002028217905092915050565b611ce3826117f1565b67ffffffffffffffff811115611cfc57611cfb61144f565b5b611d068254611afd565b611d11828285611c4d565b600060209050601f831160018114611d445760008415611d32578287015190505b611d3c8582611cbe565b865550611da4565b601f198416611d5286611b2e565b60005b82811015611d7a57848901518255600182019150602085019450602081019050611d55565b86831015611d975784890151611d93601f891682611ca0565b8355505b6001600288020188555050505b505050505050565b600081549050611dbb81611afd565b9050919050565b818103611dd0575050611ea8565b611dd982611dac565b67ffffffffffffffff811115611df257611df161144f565b5b611dfc8254611afd565b611e07828285611c4d565b6000601f831160018114611e365760008415611e24578287015490505b611e2e8582611cbe565b865550611ea1565b601f198416611e4487611b2e565b9650611e4f86611b2e565b60005b82811015611e7757848901548255600182019150600185019450602081019050611e52565b86831015611e945784890154611e90601f891682611ca0565b8355505b6001600288020188555050505b5050505050505b565b7f417474656e64616e7420494420697320616c726561647920696e207573652e00600082015250565b6000611ee0601f836117fc565b9150611eeb82611eaa565b602082019050919050565b60006020820190508181036000830152611f0f81611ed3565b9050919050565b7f4163636573732044656e6965642c204e6f7420616e20417474656e64616e742e600082015250565b6000611f4c6020836117fc565b9150611f5782611f16565b602082019050919050565b60006020820190508181036000830152611f7b81611f3f565b9050919050565b7f50617469656e74204e6f7420466f756e642e0000000000000000000000000000600082015250565b6000611fb86012836117fc565b9150611fc382611f82565b602082019050919050565b60006020820190508181036000830152611fe781611fab565b9050919050565b600081905092915050565b6000612004826117f1565b61200e8185611fee565b935061201e81856020860161180d565b80840191505092915050565b60006120368284611ff9565b915081905092915050565b7f50617469656e7420446f6573204e6f742045786973742e000000000000000000600082015250565b60006120776017836117fc565b915061208282612041565b602082019050919050565b600060208201905081810360008301526120a68161206a565b9050919050565b7f557365722057697468205468617420494420416c72656164792045786973747360008201527f2e00000000000000000000000000000000000000000000000000000000000000602082015250565b60006121096021836117fc565b9150612114826120ad565b604082019050919050565b60006020820190508181036000830152612138816120fc565b905091905056fea2646970667358221220db47546fdad18e7c3a6f011952abee7e84895dbe49bf4f2598fd762432e95a2664736f6c634300080f0033",
  "immutableReferences": {},
  "source": "// SPDX-License-Identifier: MIT\r\npragma solidity >=0.4.22 <0.9.0;\r\nimport './_Patient.sol' as PatientContract;\r\n\r\ncontract _Attendant {\r\n\r\n    struct Attendant{\r\n        uint id;\r\n        string name;\r\n        uint age;\r\n        string gender;\r\n        uint phone_no;\r\n        address _address;\r\n    }\r\n    Attendant att;\r\n\r\n    struct AtWork{\r\n        uint patient_id;\r\n        string patient_name;\r\n        string attendent_id;\r\n        string[] medicine;\r\n        string[] quantity;\r\n        string[] time;\r\n        bool exist;\r\n    }\r\n    AtWork x;\r\n    mapping(uint=>Attendant) attendant_list;\r\n    mapping(uint => AtWork) Patients;\r\n    mapping(uint=>mapping(string=>AtWork)) Med_Taken;\r\n    mapping(uint=>bool) pat_does_exist;\r\n\r\n    // Access Modifier\r\n    mapping(address=>bool) Attendants;\r\n    function addAttendant(address _adss, uint _id, string memory _name, uint _age, string memory _gender, uint _phone_no)external{\r\n        if(Attendants[_adss] != true){\r\n        Attendants[_adss] = true;\r\n        att.id = _id;\r\n        att.name = _name;\r\n        att.age = _age;\r\n        att.gender = _gender;\r\n        att.phone_no = _phone_no;\r\n        att._address = _adss;\r\n        attendant_list[_id] = att;\r\n        }else{revert(\"Attendant ID is already in use.\");}\r\n    }\r\n   //  constructor(){ Attendants[0x5B38Da6a701c568545dCfcB03FcB875f56beddC4]=true;} //For Debugging.\r\n    modifier isAttendant(){\r\n        require(Attendants[msg.sender]==true,\"Access Denied, Not an Attendant.\");\r\n        _;\r\n    }\r\n\r\n    function attendPatient(uint _patient_id,string memory _patient_name, string memory _attendent_id)public isAttendant{\r\n        require(pat_does_exist[_patient_id]==true, \"Patient Does Not Exist.\");\r\n        if(Patients[_patient_id].exist != true){\r\n            x.patient_id = _patient_id;\r\n            x.patient_name = _patient_name;\r\n            x.attendent_id = _attendent_id;\r\n            x.exist = true;\r\n            Patients[_patient_id]=x;\r\n        }else{revert(\"User With That ID Already Exists.\");}\r\n\r\n    }\r\n    function medTime(uint _patient_id, string memory _medicine, string memory _quantity,string memory _time,string memory _date) public isAttendant{\r\n        require(Patients[_patient_id].exist == true, \"Patient Not Found.\");\r\n        AtWork storage bilz = Med_Taken[_patient_id][_date];\r\n        bilz.medicine.push(_medicine);\r\n        bilz.quantity.push(_quantity);\r\n        bilz.time.push(_time);\r\n    }\r\n    function get_MedData(uint _patient_id, string memory _date) external view returns(string memory,uint, string[] memory,string[] memory,string[] memory){\r\n        require(Patients[_patient_id].exist == true,\"Patient Not Found.\");\r\n        AtWork memory bilz = Patients[_patient_id];\r\n        AtWork memory bilz2 = Med_Taken[_patient_id][_date];\r\n        return (bilz.patient_name,bilz.patient_id,bilz2.medicine, bilz2.quantity, bilz2.time);\r\n    }\r\n    function getAttendantInfo(uint _attendant_id) external view returns(uint,string memory,uint,string memory,uint,address){\r\n        Attendant memory At = attendant_list[_attendant_id];\r\n        return(At.id,At.name,At.age,At.gender,At.phone_no,At._address);\r\n    }\r\n\r\n    //Set Patient Existence\r\n    function setPatientExistence(uint _pat_id)external{\r\n        pat_does_exist[_pat_id] = true;\r\n    }\r\n}\r\n",
  "sourcePath": "D:\\Storage\\Extras\\College_Material\\Project\\home-mgmt\\contracts\\_Attendant.sol",
  "compiler": {
    "name": "solc",
    "version": "0.8.15+commit.e14f2714.Emscripten.clang"
  },
  "schemaVersion": "3.4.8",
  "updatedAt": "2022-08-19T21:05:36.038Z",
  "devdoc": {
    "kind": "dev",
    "methods": {},
    "version": 1
  },
  "userdoc": {
    "kind": "user",
    "methods": {},
    "version": 1
  }
}