{
  "contractName": "_Patient",
  "abi": [
    {
      "inputs": [
        {
          "internalType": "address",
          "name": "_DoctorContract",
          "type": "address"
        },
        {
          "internalType": "address",
          "name": "_AttendantContract",
          "type": "address"
        },
        {
          "internalType": "address",
          "name": "_address",
          "type": "address"
        },
        {
          "internalType": "uint256",
          "name": "_pat_id",
          "type": "uint256"
        },
        {
          "internalType": "string",
          "name": "Name",
          "type": "string"
        },
        {
          "internalType": "uint256",
          "name": "Age",
          "type": "uint256"
        },
        {
          "internalType": "string",
          "name": "Gender",
          "type": "string"
        },
        {
          "internalType": "uint256",
          "name": "Phone_no",
          "type": "uint256"
        },
        {
          "internalType": "string",
          "name": "Date",
          "type": "string"
        }
      ],
      "name": "addPatient",
      "outputs": [],
      "stateMutability": "nonpayable",
      "type": "function"
    },
    {
      "inputs": [
        {
          "internalType": "address",
          "name": "_address",
          "type": "address"
        },
        {
          "internalType": "uint256",
          "name": "_pat_id",
          "type": "uint256"
        },
        {
          "internalType": "uint256",
          "name": "_at_id",
          "type": "uint256"
        },
        {
          "internalType": "string",
          "name": "_name",
          "type": "string"
        },
        {
          "internalType": "uint256",
          "name": "_age",
          "type": "uint256"
        },
        {
          "internalType": "string",
          "name": "_gender",
          "type": "string"
        },
        {
          "internalType": "uint256",
          "name": "_phone_no",
          "type": "uint256"
        }
      ],
      "name": "assignAttendant",
      "outputs": [],
      "stateMutability": "nonpayable",
      "type": "function"
    },
    {
      "inputs": [
        {
          "internalType": "uint256",
          "name": "patient_id",
          "type": "uint256"
        }
      ],
      "name": "getPatient",
      "outputs": [
        {
          "internalType": "string",
          "name": "",
          "type": "string"
        },
        {
          "internalType": "uint256",
          "name": "",
          "type": "uint256"
        },
        {
          "internalType": "string",
          "name": "",
          "type": "string"
        },
        {
          "internalType": "uint256",
          "name": "",
          "type": "uint256"
        },
        {
          "internalType": "string",
          "name": "",
          "type": "string"
        },
        {
          "internalType": "uint256",
          "name": "",
          "type": "uint256"
        },
        {
          "internalType": "string",
          "name": "",
          "type": "string"
        },
        {
          "internalType": "uint256",
          "name": "",
          "type": "uint256"
        }
      ],
      "stateMutability": "view",
      "type": "function"
    },
    {
      "inputs": [
        {
          "internalType": "uint256",
          "name": "patient_id",
          "type": "uint256"
        }
      ],
      "name": "getPurePatient",
      "outputs": [
        {
          "internalType": "string",
          "name": "",
          "type": "string"
        },
        {
          "internalType": "uint256",
          "name": "",
          "type": "uint256"
        },
        {
          "internalType": "string",
          "name": "",
          "type": "string"
        },
        {
          "internalType": "uint256",
          "name": "",
          "type": "uint256"
        },
        {
          "internalType": "string",
          "name": "",
          "type": "string"
        },
        {
          "internalType": "uint256",
          "name": "",
          "type": "uint256"
        },
        {
          "internalType": "string",
          "name": "",
          "type": "string"
        },
        {
          "internalType": "uint256",
          "name": "",
          "type": "uint256"
        }
      ],
      "stateMutability": "view",
      "type": "function"
    },
    {
      "inputs": [
        {
          "internalType": "address",
          "name": "_Contract",
          "type": "address"
        },
        {
          "internalType": "uint256",
          "name": "_pat_id",
          "type": "uint256"
        },
        {
          "internalType": "string",
          "name": "_date",
          "type": "string"
        },
        {
          "internalType": "uint256",
          "name": "_pres_id",
          "type": "uint256"
        }
      ],
      "name": "getPrescription",
      "outputs": [
        {
          "internalType": "uint256",
          "name": "",
          "type": "uint256"
        },
        {
          "internalType": "uint256",
          "name": "",
          "type": "uint256"
        },
        {
          "internalType": "string",
          "name": "",
          "type": "string"
        },
        {
          "internalType": "string",
          "name": "",
          "type": "string"
        },
        {
          "internalType": "string[]",
          "name": "",
          "type": "string[]"
        },
        {
          "internalType": "uint256",
          "name": "",
          "type": "uint256"
        }
      ],
      "stateMutability": "view",
      "type": "function"
    },
    {
      "inputs": [
        {
          "internalType": "address",
          "name": "_Contract",
          "type": "address"
        },
        {
          "internalType": "uint256",
          "name": "_atten_id",
          "type": "uint256"
        }
      ],
      "name": "getAttenInfo",
      "outputs": [
        {
          "internalType": "uint256",
          "name": "",
          "type": "uint256"
        },
        {
          "internalType": "string",
          "name": "",
          "type": "string"
        },
        {
          "internalType": "uint256",
          "name": "",
          "type": "uint256"
        },
        {
          "internalType": "string",
          "name": "",
          "type": "string"
        },
        {
          "internalType": "uint256",
          "name": "",
          "type": "uint256"
        },
        {
          "internalType": "address",
          "name": "",
          "type": "address"
        }
      ],
      "stateMutability": "view",
      "type": "function"
    },
    {
      "inputs": [
        {
          "internalType": "address",
          "name": "_Contract",
          "type": "address"
        },
        {
          "internalType": "uint256",
          "name": "_doc_id",
          "type": "uint256"
        }
      ],
      "name": "getDocDetails",
      "outputs": [
        {
          "internalType": "uint256",
          "name": "",
          "type": "uint256"
        },
        {
          "internalType": "string",
          "name": "",
          "type": "string"
        },
        {
          "internalType": "uint256",
          "name": "",
          "type": "uint256"
        },
        {
          "internalType": "string",
          "name": "",
          "type": "string"
        },
        {
          "internalType": "uint256",
          "name": "",
          "type": "uint256"
        },
        {
          "internalType": "string",
          "name": "",
          "type": "string"
        }
      ],
      "stateMutability": "view",
      "type": "function"
    },
    {
      "inputs": [
        {
          "internalType": "address",
          "name": "_Contract",
          "type": "address"
        },
        {
          "internalType": "uint256",
          "name": "_pat_id",
          "type": "uint256"
        },
        {
          "internalType": "string",
          "name": "_date",
          "type": "string"
        }
      ],
      "name": "getMedData",
      "outputs": [
        {
          "internalType": "string",
          "name": "",
          "type": "string"
        },
        {
          "internalType": "uint256",
          "name": "",
          "type": "uint256"
        },
        {
          "internalType": "string[]",
          "name": "",
          "type": "string[]"
        },
        {
          "internalType": "string[]",
          "name": "",
          "type": "string[]"
        },
        {
          "internalType": "string[]",
          "name": "",
          "type": "string[]"
        }
      ],
      "stateMutability": "view",
      "type": "function"
    },
    {
      "inputs": [
        {
          "internalType": "address",
          "name": "_Contract",
          "type": "address"
        },
        {
          "internalType": "uint256",
          "name": "_pat_id",
          "type": "uint256"
        }
      ],
      "name": "getLabReport",
      "outputs": [
        {
          "internalType": "string",
          "name": "",
          "type": "string"
        },
        {
          "internalType": "uint256",
          "name": "",
          "type": "uint256"
        },
        {
          "internalType": "uint256",
          "name": "",
          "type": "uint256"
        },
        {
          "internalType": "uint256",
          "name": "",
          "type": "uint256"
        },
        {
          "internalType": "string",
          "name": "",
          "type": "string"
        },
        {
          "internalType": "uint256",
          "name": "",
          "type": "uint256"
        },
        {
          "internalType": "string[]",
          "name": "",
          "type": "string[]"
        },
        {
          "internalType": "string[]",
          "name": "",
          "type": "string[]"
        }
      ],
      "stateMutability": "view",
      "type": "function"
    },
    {
      "inputs": [
        {
          "internalType": "address",
          "name": "_Contract",
          "type": "address"
        },
        {
          "internalType": "uint256",
          "name": "_pat_id",
          "type": "uint256"
        },
        {
          "internalType": "string",
          "name": "_test_id",
          "type": "string"
        }
      ],
      "name": "getTestReport",
      "outputs": [
        {
          "internalType": "string",
          "name": "",
          "type": "string"
        },
        {
          "internalType": "uint256",
          "name": "",
          "type": "uint256"
        },
        {
          "internalType": "string",
          "name": "",
          "type": "string"
        }
      ],
      "stateMutability": "view",
      "type": "function"
    },
    {
      "inputs": [
        {
          "internalType": "address",
          "name": "_Contract",
          "type": "address"
        },
        {
          "internalType": "uint256",
          "name": "_pat_id",
          "type": "uint256"
        },
        {
          "internalType": "string",
          "name": "_date",
          "type": "string"
        }
      ],
      "name": "getMedicines",
      "outputs": [
        {
          "internalType": "string",
          "name": "",
          "type": "string"
        },
        {
          "internalType": "uint256[]",
          "name": "",
          "type": "uint256[]"
        },
        {
          "internalType": "string[]",
          "name": "",
          "type": "string[]"
        }
      ],
      "stateMutability": "view",
      "type": "function"
    },
    {
      "inputs": [
        {
          "internalType": "address",
          "name": "_Contract",
          "type": "address"
        },
        {
          "internalType": "uint256",
          "name": "_pat_id",
          "type": "uint256"
        }
      ],
      "name": "getNurseDetails",
      "outputs": [
        {
          "internalType": "uint256",
          "name": "",
          "type": "uint256"
        },
        {
          "internalType": "string",
          "name": "",
          "type": "string"
        },
        {
          "internalType": "uint256",
          "name": "",
          "type": "uint256"
        },
        {
          "internalType": "string",
          "name": "",
          "type": "string"
        },
        {
          "internalType": "uint256",
          "name": "",
          "type": "uint256"
        },
        {
          "internalType": "string",
          "name": "",
          "type": "string"
        }
      ],
      "stateMutability": "view",
      "type": "function"
    },
    {
      "inputs": [
        {
          "internalType": "uint256",
          "name": "_pat_id",
          "type": "uint256"
        },
        {
          "internalType": "string",
          "name": "_month",
          "type": "string"
        },
        {
          "internalType": "string",
          "name": "_date",
          "type": "string"
        }
      ],
      "name": "setDocVisit",
      "outputs": [],
      "stateMutability": "nonpayable",
      "type": "function"
    },
    {
      "inputs": [
        {
          "internalType": "uint256",
          "name": "_pat_id",
          "type": "uint256"
        },
        {
          "internalType": "string",
          "name": "_month",
          "type": "string"
        }
      ],
      "name": "getDocVisit",
      "outputs": [
        {
          "internalType": "uint256",
          "name": "",
          "type": "uint256"
        },
        {
          "internalType": "string[]",
          "name": "",
          "type": "string[]"
        }
      ],
      "stateMutability": "view",
      "type": "function"
    }
  ],
  "bytecode": "0x608060405234801561001057600080fd5b50613811806100206000396000f3fe608060405234801561001057600080fd5b50600436106100ea5760003560e01c806380d937b61161008c578063be59cbca11610066578063be59cbca146102c9578063d9205978146102fd578063daaedfe314610319578063fe4401b51461034e576100ea565b806380d937b6146102285780639211134c1461025f5780639e73101114610294576100ea565b80633deb46f7116100c85780633deb46f7146101595780634d28f7671461018a5780635bcb6c05146101bc5780637d3a6796146101f1576100ea565b806303cf3e5e146100ef578063044a60721461010b57806335048acc1461013d575b600080fd5b61010960048036038101906101049190611ead565b610385565b005b61012560048036038101906101209190611f87565b61074d565b6040516101349392919061208d565b60405180910390f35b610157600480360381019061015291906120d2565b6107e9565b005b610173600480360381019061016e919061215d565b610850565b6040516101819291906122c5565b60405180910390f35b6101a4600480360381019061019f9190611f87565b610994565b6040516101b3939291906123b3565b60405180910390f35b6101d660048036038101906101d191906123ff565b610a2f565b6040516101e89695949392919061243f565b60405180910390f35b61020b600480360381019061020691906124b5565b610ad6565b60405161021f9897969594939291906124e2565b60405180910390f35b610242600480360381019061023d91906123ff565b611017565b60405161025698979695949392919061257c565b60405180910390f35b61027960048036038101906102749190612616565b6110c7565b60405161028b96959493929190612699565b60405180910390f35b6102ae60048036038101906102a991906123ff565b611172565b6040516102c09695949392919061271e565b60405180910390f35b6102e360048036038101906102de9190611f87565b611218565b6040516102f495949392919061278d565b60405180910390f35b610317600480360381019061031291906127fc565b6112bd565b005b610333600480360381019061032e91906123ff565b611698565b6040516103459695949392919061243f565b60405180910390f35b610368600480360381019061036391906124b5565b61173f565b60405161037c9897969594939291906124e2565b60405180910390f35b8673ffffffffffffffffffffffffffffffffffffffff16600f600088815260200190815260200160002060070160009054906101000a900473ffffffffffffffffffffffffffffffffffffffff1673ffffffffffffffffffffffffffffffffffffffff16146107095784600080018190555083600060010190816104099190612b26565b508260006002018190555081600060030190816104269190612b26565b5080600060040181905550600f600087815260200190815260200160002060106000878152602001908152602001600020600088815260200190815260200160002060008201548160000155600182018160010190816104869190612c0e565b5060028201548160020155600382018160030190816104a59190612c0e565b5060048201548160040155600582018160050190816104c49190612c0e565b50600682015481600601556007820160009054906101000a900473ffffffffffffffffffffffffffffffffffffffff168160070160006101000a81548173ffffffffffffffffffffffffffffffffffffffff021916908373ffffffffffffffffffffffffffffffffffffffff1602179055506008820160009054906101000a900473ffffffffffffffffffffffffffffffffffffffff168160080160006101000a81548173ffffffffffffffffffffffffffffffffffffffff021916908373ffffffffffffffffffffffffffffffffffffffff1602179055506008820160149054906101000a900460ff168160080160146101000a81548160ff02191690831515021790555090505084600f60008881526020019081526020016000206006018190555086600f600088815260200190815260200160002060070160006101000a81548173ffffffffffffffffffffffffffffffffffffffff021916908373ffffffffffffffffffffffffffffffffffffffff16021790555060006011600088815260200190815260200160002060008201548160000155600182018160010190816106709190612c0e565b50600282015481600201556003820181600301908161068f9190612c0e565b50600482015481600401556005820160009054906101000a900473ffffffffffffffffffffffffffffffffffffffff168160050160006101000a81548173ffffffffffffffffffffffffffffffffffffffff021916908373ffffffffffffffffffffffffffffffffffffffff160217905550905050610744565b6040517f08c379a000000000000000000000000000000000000000000000000000000000815260040161073b90612d68565b60405180910390fd5b50505050505050565b60606000606060008690508073ffffffffffffffffffffffffffffffffffffffff16630f941a1587876040518363ffffffff1660e01b8152600401610793929190612d88565b600060405180830381865afa1580156107b0573d6000803e3d6000fd5b505050506040513d6000823e3d601f19601f820116820180604052508101906107d99190612e3d565b9350935093505093509350939050565b601260008481526020019081526020016000208260405161080a9190612f04565b90815260200160405180910390208190806001815401808255809150506001900390600052602060002001600090919091909150908161084a9190612b26565b50505050565b6000606060126000858152602001908152602001600020836040516108759190612f04565b90815260200160405180910390208054905060126000868152602001908152602001600020846040516108a89190612f04565b908152602001604051809103902080805480602002602001604051908101604052809291908181526020016000905b828210156109835783829060005260206000200180546108f690612949565b80601f016020809104026020016040519081016040528092919081815260200182805461092290612949565b801561096f5780601f106109445761010080835404028352916020019161096f565b820191906000526020600020905b81548152906001019060200180831161095257829003601f168201915b5050505050815260200190600101906108d7565b505050509050915091509250929050565b606080606060008690508073ffffffffffffffffffffffffffffffffffffffff16637497c47b87876040518363ffffffff1660e01b81526004016109d9929190612d88565b600060405180830381865afa1580156109f6573d6000803e3d6000fd5b505050506040513d6000823e3d601f19601f82011682018060405250810190610a1f91906130c4565b9350935093505093509350939050565b60006060600060606000606060008890508073ffffffffffffffffffffffffffffffffffffffff1663747db446896040518263ffffffff1660e01b8152600401610a79919061316b565b600060405180830381865afa158015610a96573d6000803e3d6000fd5b505050506040513d6000823e3d601f19601f82011682018060405250810190610abf9190613186565b965096509650965096509650509295509295509295565b6060600060606000606060006060600060011515600f60008b815260200190815260200160002060080160149054906101000a900460ff16151514610b50576040517f08c379a0000000000000000000000000000000000000000000000000000000008152600401610b47906132b3565b60405180910390fd5b6000600f60008b81526020019081526020016000206040518061014001604052908160008201548152602001600182018054610b8b90612949565b80601f0160208091040260200160405190810160405280929190818152602001828054610bb790612949565b8015610c045780601f10610bd957610100808354040283529160200191610c04565b820191906000526020600020905b815481529060010190602001808311610be757829003601f168201915b5050505050815260200160028201548152602001600382018054610c2790612949565b80601f0160208091040260200160405190810160405280929190818152602001828054610c5390612949565b8015610ca05780601f10610c7557610100808354040283529160200191610ca0565b820191906000526020600020905b815481529060010190602001808311610c8357829003601f168201915b5050505050815260200160048201548152602001600582018054610cc390612949565b80601f0160208091040260200160405190810160405280929190818152602001828054610cef90612949565b8015610d3c5780601f10610d1157610100808354040283529160200191610d3c565b820191906000526020600020905b815481529060010190602001808311610d1f57829003601f168201915b50505050508152602001600682015481526020016007820160009054906101000a900473ffffffffffffffffffffffffffffffffffffffff1673ffffffffffffffffffffffffffffffffffffffff1673ffffffffffffffffffffffffffffffffffffffff1681526020016008820160009054906101000a900473ffffffffffffffffffffffffffffffffffffffff1673ffffffffffffffffffffffffffffffffffffffff1673ffffffffffffffffffffffffffffffffffffffff1681526020016008820160149054906101000a900460ff16151515158152505090506000601160008c81526020019081526020016000206040518060c001604052908160008201548152602001600182018054610e5290612949565b80601f0160208091040260200160405190810160405280929190818152602001828054610e7e90612949565b8015610ecb5780601f10610ea057610100808354040283529160200191610ecb565b820191906000526020600020905b815481529060010190602001808311610eae57829003601f168201915b5050505050815260200160028201548152602001600382018054610eee90612949565b80601f0160208091040260200160405190810160405280929190818152602001828054610f1a90612949565b8015610f675780601f10610f3c57610100808354040283529160200191610f67565b820191906000526020600020905b815481529060010190602001808311610f4a57829003601f168201915b50505050508152602001600482015481526020016005820160009054906101000a900473ffffffffffffffffffffffffffffffffffffffff1673ffffffffffffffffffffffffffffffffffffffff1673ffffffffffffffffffffffffffffffffffffffff1681525050905081602001518260400151836060015184608001518560a001518660c0015186602001518760800151995099509950995099509950995099505050919395975091939597565b606060008060006060600060608060008a90508073ffffffffffffffffffffffffffffffffffffffff1663d30196a38b6040518263ffffffff1660e01b8152600401611063919061316b565b600060405180830381865afa158015611080573d6000803e3d6000fd5b505050506040513d6000823e3d601f19601f820116820180604052508101906110a991906132d3565b98509850985098509850985098509850509295985092959890939650565b60008060608060606000808a90508073ffffffffffffffffffffffffffffffffffffffff16636d22fbe28b8b8b6040518463ffffffff1660e01b8152600401611112939291906133f9565b600060405180830381865afa15801561112f573d6000803e3d6000fd5b505050506040513d6000823e3d601f19601f820116820180604052508101906111589190613437565b965096509650965096509650509499939850945094509450565b600060606000606060008060008890508073ffffffffffffffffffffffffffffffffffffffff16635fede16a896040518263ffffffff1660e01b81526004016111bb919061316b565b600060405180830381865afa1580156111d8573d6000803e3d6000fd5b505050506040513d6000823e3d601f19601f82011682018060405250810190611201919061352d565b965096509650965096509650509295509295509295565b60606000606080606060008890508073ffffffffffffffffffffffffffffffffffffffff1663d75b95ec89896040518363ffffffff1660e01b8152600401611261929190612d88565b600060405180830381865afa15801561127e573d6000803e3d6000fd5b505050506040513d6000823e3d601f19601f820116820180604052508101906112a791906135f2565b9550955095509550955050939792965093509350565b60011515600f600088815260200190815260200160002060080160149054906101000a900460ff1615151461165257856006600001819055508360066002018190555084600660010190816113129190612b26565b5082600660030190816113259190612b26565b508160066004018190555080600660050190816113429190612b26565b506001600660080160146101000a81548160ff02191690831515021790555086600660080160006101000a81548173ffffffffffffffffffffffffffffffffffffffff021916908373ffffffffffffffffffffffffffffffffffffffff1602179055506006600f600088815260200190815260200160002060008201548160000155600182018160010190816113d89190612c0e565b5060028201548160020155600382018160030190816113f79190612c0e565b5060048201548160040155600582018160050190816114169190612c0e565b50600682015481600601556007820160009054906101000a900473ffffffffffffffffffffffffffffffffffffffff168160070160006101000a81548173ffffffffffffffffffffffffffffffffffffffff021916908373ffffffffffffffffffffffffffffffffffffffff1602179055506008820160009054906101000a900473ffffffffffffffffffffffffffffffffffffffff168160080160006101000a81548173ffffffffffffffffffffffffffffffffffffffff021916908373ffffffffffffffffffffffffffffffffffffffff1602179055506008820160149054906101000a900460ff168160080160146101000a81548160ff0219169083151502179055509050506001601360008973ffffffffffffffffffffffffffffffffffffffff1673ffffffffffffffffffffffffffffffffffffffff16815260200190815260200160002060006101000a81548160ff0219169083151502179055508773ffffffffffffffffffffffffffffffffffffffff166388a3274e876040518263ffffffff1660e01b81526004016115b0919061316b565b600060405180830381600087803b1580156115ca57600080fd5b505af11580156115de573d6000803e3d6000fd5b505050508873ffffffffffffffffffffffffffffffffffffffff166388a3274e876040518263ffffffff1660e01b815260040161161b919061316b565b600060405180830381600087803b15801561163557600080fd5b505af1158015611649573d6000803e3d6000fd5b5050505061168d565b6040517f08c379a000000000000000000000000000000000000000000000000000000000815260040161168490613729565b60405180910390fd5b505050505050505050565b60006060600060606000606060008890508073ffffffffffffffffffffffffffffffffffffffff16636138fede896040518263ffffffff1660e01b81526004016116e2919061316b565b600060405180830381865afa1580156116ff573d6000803e3d6000fd5b505050506040513d6000823e3d601f19601f820116820180604052508101906117289190613186565b965096509650965096509650509295509295509295565b606060006060600060606000606060003373ffffffffffffffffffffffffffffffffffffffff16600f60008b815260200190815260200160002060080160009054906101000a900473ffffffffffffffffffffffffffffffffffffffff1673ffffffffffffffffffffffffffffffffffffffff1603611c79576000600f60008b815260200190815260200160002060405180610140016040529081600082015481526020016001820180546117f390612949565b80601f016020809104026020016040519081016040528092919081815260200182805461181f90612949565b801561186c5780601f106118415761010080835404028352916020019161186c565b820191906000526020600020905b81548152906001019060200180831161184f57829003601f168201915b505050505081526020016002820154815260200160038201805461188f90612949565b80601f01602080910402602001604051908101604052809291908181526020018280546118bb90612949565b80156119085780601f106118dd57610100808354040283529160200191611908565b820191906000526020600020905b8154815290600101906020018083116118eb57829003601f168201915b505050505081526020016004820154815260200160058201805461192b90612949565b80601f016020809104026020016040519081016040528092919081815260200182805461195790612949565b80156119a45780601f10611979576101008083540402835291602001916119a4565b820191906000526020600020905b81548152906001019060200180831161198757829003601f168201915b50505050508152602001600682015481526020016007820160009054906101000a900473ffffffffffffffffffffffffffffffffffffffff1673ffffffffffffffffffffffffffffffffffffffff1673ffffffffffffffffffffffffffffffffffffffff1681526020016008820160009054906101000a900473ffffffffffffffffffffffffffffffffffffffff1673ffffffffffffffffffffffffffffffffffffffff1673ffffffffffffffffffffffffffffffffffffffff1681526020016008820160149054906101000a900460ff16151515158152505090506000601160008c81526020019081526020016000206040518060c001604052908160008201548152602001600182018054611aba90612949565b80601f0160208091040260200160405190810160405280929190818152602001828054611ae690612949565b8015611b335780601f10611b0857610100808354040283529160200191611b33565b820191906000526020600020905b815481529060010190602001808311611b1657829003601f168201915b5050505050815260200160028201548152602001600382018054611b5690612949565b80601f0160208091040260200160405190810160405280929190818152602001828054611b8290612949565b8015611bcf5780601f10611ba457610100808354040283529160200191611bcf565b820191906000526020600020905b815481529060010190602001808311611bb257829003601f168201915b50505050508152602001600482015481526020016005820160009054906101000a900473ffffffffffffffffffffffffffffffffffffffff1673ffffffffffffffffffffffffffffffffffffffff1673ffffffffffffffffffffffffffffffffffffffff1681525050905081602001518260400151836060015184608001518560a001518660c0015186602001518760800151995099509950995099509950995099505050611cb4565b6040517f08c379a0000000000000000000000000000000000000000000000000000000008152600401611cab906137bb565b60405180910390fd5b919395975091939597565b6000604051905090565b600080fd5b600080fd5b600073ffffffffffffffffffffffffffffffffffffffff82169050919050565b6000611cfe82611cd3565b9050919050565b611d0e81611cf3565b8114611d1957600080fd5b50565b600081359050611d2b81611d05565b92915050565b6000819050919050565b611d4481611d31565b8114611d4f57600080fd5b50565b600081359050611d6181611d3b565b92915050565b600080fd5b600080fd5b6000601f19601f8301169050919050565b7f4e487b7100000000000000000000000000000000000000000000000000000000600052604160045260246000fd5b611dba82611d71565b810181811067ffffffffffffffff82111715611dd957611dd8611d82565b5b80604052505050565b6000611dec611cbf565b9050611df88282611db1565b919050565b600067ffffffffffffffff821115611e1857611e17611d82565b5b611e2182611d71565b9050602081019050919050565b82818337600083830152505050565b6000611e50611e4b84611dfd565b611de2565b905082815260208101848484011115611e6c57611e6b611d6c565b5b611e77848285611e2e565b509392505050565b600082601f830112611e9457611e93611d67565b5b8135611ea4848260208601611e3d565b91505092915050565b600080600080600080600060e0888a031215611ecc57611ecb611cc9565b5b6000611eda8a828b01611d1c565b9750506020611eeb8a828b01611d52565b9650506040611efc8a828b01611d52565b955050606088013567ffffffffffffffff811115611f1d57611f1c611cce565b5b611f298a828b01611e7f565b9450506080611f3a8a828b01611d52565b93505060a088013567ffffffffffffffff811115611f5b57611f5a611cce565b5b611f678a828b01611e7f565b92505060c0611f788a828b01611d52565b91505092959891949750929550565b600080600060608486031215611fa057611f9f611cc9565b5b6000611fae86828701611d1c565b9350506020611fbf86828701611d52565b925050604084013567ffffffffffffffff811115611fe057611fdf611cce565b5b611fec86828701611e7f565b9150509250925092565b600081519050919050565b600082825260208201905092915050565b60005b83811015612030578082015181840152602081019050612015565b8381111561203f576000848401525b50505050565b600061205082611ff6565b61205a8185612001565b935061206a818560208601612012565b61207381611d71565b840191505092915050565b61208781611d31565b82525050565b600060608201905081810360008301526120a78186612045565b90506120b6602083018561207e565b81810360408301526120c88184612045565b9050949350505050565b6000806000606084860312156120eb576120ea611cc9565b5b60006120f986828701611d52565b935050602084013567ffffffffffffffff81111561211a57612119611cce565b5b61212686828701611e7f565b925050604084013567ffffffffffffffff81111561214757612146611cce565b5b61215386828701611e7f565b9150509250925092565b6000806040838503121561217457612173611cc9565b5b600061218285828601611d52565b925050602083013567ffffffffffffffff8111156121a3576121a2611cce565b5b6121af85828601611e7f565b9150509250929050565b600081519050919050565b600082825260208201905092915050565b6000819050602082019050919050565b600082825260208201905092915050565b600061220182611ff6565b61220b81856121e5565b935061221b818560208601612012565b61222481611d71565b840191505092915050565b600061223b83836121f6565b905092915050565b6000602082019050919050565b600061225b826121b9565b61226581856121c4565b935083602082028501612277856121d5565b8060005b858110156122b35784840389528151612294858261222f565b945061229f83612243565b925060208a0199505060018101905061227b565b50829750879550505050505092915050565b60006040820190506122da600083018561207e565b81810360208301526122ec8184612250565b90509392505050565b600081519050919050565b600082825260208201905092915050565b6000819050602082019050919050565b61232a81611d31565b82525050565b600061233c8383612321565b60208301905092915050565b6000602082019050919050565b6000612360826122f5565b61236a8185612300565b935061237583612311565b8060005b838110156123a657815161238d8882612330565b975061239883612348565b925050600181019050612379565b5085935050505092915050565b600060608201905081810360008301526123cd8186612045565b905081810360208301526123e18185612355565b905081810360408301526123f58184612250565b9050949350505050565b6000806040838503121561241657612415611cc9565b5b600061242485828601611d1c565b925050602061243585828601611d52565b9150509250929050565b600060c082019050612454600083018961207e565b81810360208301526124668188612045565b9050612475604083018761207e565b81810360608301526124878186612045565b9050612496608083018561207e565b81810360a08301526124a88184612045565b9050979650505050505050565b6000602082840312156124cb576124ca611cc9565b5b60006124d984828501611d52565b91505092915050565b60006101008201905081810360008301526124fd818b612045565b905061250c602083018a61207e565b818103604083015261251e8189612045565b905061252d606083018861207e565b818103608083015261253f8187612045565b905061254e60a083018661207e565b81810360c08301526125608185612045565b905061256f60e083018461207e565b9998505050505050505050565b6000610100820190508181036000830152612597818b612045565b90506125a6602083018a61207e565b6125b3604083018961207e565b6125c0606083018861207e565b81810360808301526125d28187612045565b90506125e160a083018661207e565b81810360c08301526125f38185612250565b905081810360e08301526126078184612250565b90509998505050505050505050565b600080600080608085870312156126305761262f611cc9565b5b600061263e87828801611d1c565b945050602061264f87828801611d52565b935050604085013567ffffffffffffffff8111156126705761266f611cce565b5b61267c87828801611e7f565b925050606061268d87828801611d52565b91505092959194509250565b600060c0820190506126ae600083018961207e565b6126bb602083018861207e565b81810360408301526126cd8187612045565b905081810360608301526126e18186612045565b905081810360808301526126f58185612250565b905061270460a083018461207e565b979650505050505050565b61271881611cf3565b82525050565b600060c082019050612733600083018961207e565b81810360208301526127458188612045565b9050612754604083018761207e565b81810360608301526127668186612045565b9050612775608083018561207e565b61278260a083018461270f565b979650505050505050565b600060a08201905081810360008301526127a78188612045565b90506127b6602083018761207e565b81810360408301526127c88186612250565b905081810360608301526127dc8185612250565b905081810360808301526127f08184612250565b90509695505050505050565b60008060008060008060008060006101208a8c03121561281f5761281e611cc9565b5b600061282d8c828d01611d1c565b995050602061283e8c828d01611d1c565b985050604061284f8c828d01611d1c565b97505060606128608c828d01611d52565b96505060808a013567ffffffffffffffff81111561288157612880611cce565b5b61288d8c828d01611e7f565b95505060a061289e8c828d01611d52565b94505060c08a013567ffffffffffffffff8111156128bf576128be611cce565b5b6128cb8c828d01611e7f565b93505060e06128dc8c828d01611d52565b9250506101008a013567ffffffffffffffff8111156128fe576128fd611cce565b5b61290a8c828d01611e7f565b9150509295985092959850929598565b7f4e487b7100000000000000000000000000000000000000000000000000000000600052602260045260246000fd5b6000600282049050600182168061296157607f821691505b6020821081036129745761297361291a565b5b50919050565b60008190508160005260206000209050919050565b60006020601f8301049050919050565b600082821b905092915050565b6000600883026129dc7fffffffffffffffffffffffffffffffffffffffffffffffffffffffffffffffff8261299f565b6129e6868361299f565b95508019841693508086168417925050509392505050565b6000819050919050565b6000612a23612a1e612a1984611d31565b6129fe565b611d31565b9050919050565b6000819050919050565b612a3d83612a08565b612a51612a4982612a2a565b8484546129ac565b825550505050565b600090565b612a66612a59565b612a71818484612a34565b505050565b5b81811015612a9557612a8a600082612a5e565b600181019050612a77565b5050565b601f821115612ada57612aab8161297a565b612ab48461298f565b81016020851015612ac3578190505b612ad7612acf8561298f565b830182612a76565b50505b505050565b600082821c905092915050565b6000612afd60001984600802612adf565b1980831691505092915050565b6000612b168383612aec565b9150826002028217905092915050565b612b2f82611ff6565b67ffffffffffffffff811115612b4857612b47611d82565b5b612b528254612949565b612b5d828285612a99565b600060209050601f831160018114612b905760008415612b7e578287015190505b612b888582612b0a565b865550612bf0565b601f198416612b9e8661297a565b60005b82811015612bc657848901518255600182019150602085019450602081019050612ba1565b86831015612be35784890151612bdf601f891682612aec565b8355505b6001600288020188555050505b505050505050565b600081549050612c0781612949565b9050919050565b818103612c1c575050612cf4565b612c2582612bf8565b67ffffffffffffffff811115612c3e57612c3d611d82565b5b612c488254612949565b612c53828285612a99565b6000601f831160018114612c825760008415612c70578287015490505b612c7a8582612b0a565b865550612ced565b601f198416612c908761297a565b9650612c9b8661297a565b60005b82811015612cc357848901548255600182019150600185019450602081019050612c9e565b86831015612ce05784890154612cdc601f891682612aec565b8355505b6001600288020188555050505b5050505050505b565b7f416c72656164792061737369676e656420746f20746861742070617469656e7460008201527f2049442e00000000000000000000000000000000000000000000000000000000602082015250565b6000612d52602483612001565b9150612d5d82612cf6565b604082019050919050565b60006020820190508181036000830152612d8181612d45565b9050919050565b6000604082019050612d9d600083018561207e565b8181036020830152612daf8184612045565b90509392505050565b6000612dcb612dc684611dfd565b611de2565b905082815260208101848484011115612de757612de6611d6c565b5b612df2848285612012565b509392505050565b600082601f830112612e0f57612e0e611d67565b5b8151612e1f848260208601612db8565b91505092915050565b600081519050612e3781611d3b565b92915050565b600080600060608486031215612e5657612e55611cc9565b5b600084015167ffffffffffffffff811115612e7457612e73611cce565b5b612e8086828701612dfa565b9350506020612e9186828701612e28565b925050604084015167ffffffffffffffff811115612eb257612eb1611cce565b5b612ebe86828701612dfa565b9150509250925092565b600081905092915050565b6000612ede82611ff6565b612ee88185612ec8565b9350612ef8818560208601612012565b80840191505092915050565b6000612f108284612ed3565b915081905092915050565b600067ffffffffffffffff821115612f3657612f35611d82565b5b602082029050602081019050919050565b600080fd5b6000612f5f612f5a84612f1b565b611de2565b90508083825260208201905060208402830185811115612f8257612f81612f47565b5b835b81811015612fab5780612f978882612e28565b845260208401935050602081019050612f84565b5050509392505050565b600082601f830112612fca57612fc9611d67565b5b8151612fda848260208601612f4c565b91505092915050565b600067ffffffffffffffff821115612ffe57612ffd611d82565b5b602082029050602081019050919050565b600061302261301d84612fe3565b611de2565b9050808382526020820190506020840283018581111561304557613044612f47565b5b835b8181101561308c57805167ffffffffffffffff81111561306a57613069611d67565b5b8086016130778982612dfa565b85526020850194505050602081019050613047565b5050509392505050565b600082601f8301126130ab576130aa611d67565b5b81516130bb84826020860161300f565b91505092915050565b6000806000606084860312156130dd576130dc611cc9565b5b600084015167ffffffffffffffff8111156130fb576130fa611cce565b5b61310786828701612dfa565b935050602084015167ffffffffffffffff81111561312857613127611cce565b5b61313486828701612fb5565b925050604084015167ffffffffffffffff81111561315557613154611cce565b5b61316186828701613096565b9150509250925092565b6000602082019050613180600083018461207e565b92915050565b60008060008060008060c087890312156131a3576131a2611cc9565b5b60006131b189828a01612e28565b965050602087015167ffffffffffffffff8111156131d2576131d1611cce565b5b6131de89828a01612dfa565b95505060406131ef89828a01612e28565b945050606087015167ffffffffffffffff8111156132105761320f611cce565b5b61321c89828a01612dfa565b935050608061322d89828a01612e28565b92505060a087015167ffffffffffffffff81111561324e5761324d611cce565b5b61325a89828a01612dfa565b9150509295509295509295565b7f4e6f204461746120417661696c61626c652e0000000000000000000000000000600082015250565b600061329d601283612001565b91506132a882613267565b602082019050919050565b600060208201905081810360008301526132cc81613290565b9050919050565b600080600080600080600080610100898b0312156132f4576132f3611cc9565b5b600089015167ffffffffffffffff81111561331257613311611cce565b5b61331e8b828c01612dfa565b985050602061332f8b828c01612e28565b97505060406133408b828c01612e28565b96505060606133518b828c01612e28565b955050608089015167ffffffffffffffff81111561337257613371611cce565b5b61337e8b828c01612dfa565b94505060a061338f8b828c01612e28565b93505060c089015167ffffffffffffffff8111156133b0576133af611cce565b5b6133bc8b828c01613096565b92505060e089015167ffffffffffffffff8111156133dd576133dc611cce565b5b6133e98b828c01613096565b9150509295985092959890939650565b600060608201905061340e600083018661207e565b81810360208301526134208185612045565b905061342f604083018461207e565b949350505050565b60008060008060008060c0878903121561345457613453611cc9565b5b600061346289828a01612e28565b965050602061347389828a01612e28565b955050604087015167ffffffffffffffff81111561349457613493611cce565b5b6134a089828a01612dfa565b945050606087015167ffffffffffffffff8111156134c1576134c0611cce565b5b6134cd89828a01612dfa565b935050608087015167ffffffffffffffff8111156134ee576134ed611cce565b5b6134fa89828a01613096565b92505060a061350b89828a01612e28565b9150509295509295509295565b60008151905061352781611d05565b92915050565b60008060008060008060c0878903121561354a57613549611cc9565b5b600061355889828a01612e28565b965050602087015167ffffffffffffffff81111561357957613578611cce565b5b61358589828a01612dfa565b955050604061359689828a01612e28565b945050606087015167ffffffffffffffff8111156135b7576135b6611cce565b5b6135c389828a01612dfa565b93505060806135d489828a01612e28565b92505060a06135e589828a01613518565b9150509295509295509295565b600080600080600060a0868803121561360e5761360d611cc9565b5b600086015167ffffffffffffffff81111561362c5761362b611cce565b5b61363888828901612dfa565b955050602061364988828901612e28565b945050604086015167ffffffffffffffff81111561366a57613669611cce565b5b61367688828901613096565b935050606086015167ffffffffffffffff81111561369757613696611cce565b5b6136a388828901613096565b925050608086015167ffffffffffffffff8111156136c4576136c3611cce565b5b6136d088828901613096565b9150509295509295909350565b7f50617469656e7420494420616c726561647920696e207573652e000000000000600082015250565b6000613713601a83612001565b915061371e826136dd565b602082019050919050565b6000602082019050818103600083015261374281613706565b9050919050565b7f4163636573732044656e6965642c204e6f74206120726567697374657265642060008201527f70617469656e742e000000000000000000000000000000000000000000000000602082015250565b60006137a5602883612001565b91506137b082613749565b604082019050919050565b600060208201905081810360008301526137d481613798565b905091905056fea2646970667358221220f3c440d6c104b1b309a42ce7b8adea1823b97882d7de4908f1c99b9f2aa2109a64736f6c634300080f0033",
  "immutableReferences": {},
  "source": "// SPDX-License-Identifier: MIT\r\npragma solidity >=0.4.22 <0.9.0;\r\nimport './Doctor.sol';\r\nimport './_Attendant.sol';\r\nimport './Laboratory.sol';\r\nimport './Pharmacy.sol';\r\nimport './Nurse.sol';\r\n\r\ncontract _Patient{\r\n    \r\n    struct Attendant{\r\n        uint id;\r\n        string name;\r\n        uint age;\r\n        string gender;\r\n        uint phone_no;\r\n        address _address;\r\n    }\r\n    Attendant att;\r\n\r\n    struct  Patient{\r\n        uint id;\r\n        string name;\r\n        uint age;\r\n        string gender;\r\n        uint phone_no;\r\n        string date;\r\n        uint attendant_id;\r\n        address _atten_address;\r\n        address _Pat_address;\r\n        bool exist;\r\n    }\r\n    Patient x;\r\n\r\n    mapping(uint => Patient) Patients;\r\n    mapping(uint => mapping(uint=>Patient)) Attendants;\r\n    mapping(uint => Attendant) Attend;\r\n    mapping(uint => mapping(string=>string[])) Visits;\r\n\r\n    // Access Modifier\r\n    mapping(address=>bool) pat_exists;\r\n    // constructor() {pat_exists[0x5B38Da6a701c568545dCfcB03FcB875f56beddC4]=true;} // For Debugging\r\n     modifier isPatient(){\r\n         require(pat_exists[msg.sender]==true,\"Access Denied, Not a Patient.\");\r\n         _;\r\n     }\r\n\r\n    // SET PATIENT DETAILS\r\n     function addPatient(address _DoctorContract,address _AttendantContract, address _address,uint _pat_id, string memory Name, uint Age, string memory Gender, uint Phone_no, string memory Date) external{\r\n        if(Patients[_pat_id].exist != true){\r\n            x.id = _pat_id;\r\n            x.age = Age;\r\n            x.name = Name;\r\n            x.gender = Gender;\r\n            x.phone_no = Phone_no;\r\n            x.date = Date;\r\n            x.exist = true;\r\n            x._Pat_address = _address;\r\n            Patients[_pat_id]=x;\r\n            pat_exists[_address] = true;\r\n            _Attendant(_AttendantContract).setPatientExistence(_pat_id);\r\n            Doctor(_DoctorContract).setPatientExistence(_pat_id);\r\n       }else{revert(\"Patient ID already in use.\");}\r\n    }\r\n\r\n    // Assigning Attendant\r\n    function assignAttendant(address _address, uint _pat_id, uint _at_id,string memory _name, uint _age, string memory _gender, uint _phone_no) external{\r\n        if(Patients[_pat_id]._atten_address != _address){\r\n            att.id = _at_id;\r\n            att.name = _name;\r\n            att.age = _age;\r\n            att.gender = _gender;\r\n            att.phone_no = _phone_no;\r\n            Attendants[_at_id][_pat_id] = Patients[_pat_id] ;\r\n            Patients[_pat_id].attendant_id = _at_id;\r\n            Patients[_pat_id]._atten_address = _address;\r\n            Attend[_pat_id] = att;\r\n        }else{revert(\"Already assigned to that patient ID.\");}\r\n    }\r\n    //GET PATIENT DETAILS\r\n    function getPatient(uint patient_id)public view returns(string memory,uint,string memory, uint, string memory, uint,string memory,uint){\r\n        require(Patients[patient_id].exist == true, \"No Data Available.\");\r\n        Patient memory pt = Patients[patient_id];\r\n        Attendant memory at = Attend[patient_id];\r\n        return(pt.name,pt.age,pt.gender,pt.phone_no,pt.date,pt.attendant_id,at.name,at.phone_no);\r\n    }\r\n\r\n    // Patient Specific GETTER //GET PATIENT DETAILS\r\n    function getPurePatient(uint patient_id)public view returns(string memory,uint,string memory, uint, string memory, uint,string memory,uint){\r\n        if(Patients[patient_id]._Pat_address == msg.sender){\r\n            Patient memory pt = Patients[patient_id];\r\n            Attendant memory at = Attend[patient_id];\r\n            return(pt.name,pt.age,pt.gender,pt.phone_no,pt.date,pt.attendant_id,at.name,at.phone_no);\r\n        }else{revert(\"Access Denied, Not a registered patient.\");}\r\n    }\r\n\r\n    // Get Prescription from Doctor's Contract;\r\n    function getPrescription(address _Contract, uint _pat_id,string memory _date, uint _pres_id) public view returns(uint,uint,string memory, string memory,string[] memory,uint){\r\n        Doctor D = Doctor(_Contract);\r\n        return(D.getPrescription(_pat_id,_date, _pres_id));\r\n    }\r\n\r\n    // Get Attendant Data\r\n    function getAttenInfo(address _Contract, uint _atten_id)public view returns(uint,string memory,uint,string memory,uint,address){\r\n        _Attendant At = _Attendant(_Contract);\r\n        return(At.getAttendantInfo(_atten_id));\r\n    }\r\n    // Get Doctor Data\r\n    function getDocDetails(address _Contract, uint _doc_id) public view returns(uint,string memory,uint, string memory, uint, string memory){\r\n        Doctor D = Doctor(_Contract);\r\n        return(D.getDocInfo(_doc_id));\r\n    }\r\n    // Get Administered Medicine Data\r\n    function getMedData(address _Contract, uint _pat_id, string memory _date)public view returns(string memory,uint, string[] memory,string[] memory,string[] memory){\r\n        _Attendant At = _Attendant(_Contract);\r\n        return(At.get_MedData(_pat_id,_date));\r\n    }\r\n\r\n    // Get Lab Report\r\n    function getLabReport(address _Contract, uint _pat_id)public view returns(string memory, uint,uint,uint,string memory,uint,string[] memory, string[] memory){\r\n        Laboratory L = Laboratory(_Contract);\r\n        return(L.get_report(_pat_id));\r\n    }\r\n    function getTestReport(address _Contract,uint _pat_id, string memory _test_id)public view returns(string memory, uint, string memory){\r\n        Laboratory L = Laboratory(_Contract);\r\n        return(L.get_test(_pat_id,_test_id));\r\n    }\r\n    //\r\n\r\n    // Get Pharmacy Meds Data\r\n    function getMedicines(address _Contract,uint _pat_id, string memory _date)public view returns(string memory, uint[] memory,string[] memory){\r\n        Pharmacy Ph = Pharmacy(_Contract);\r\n        return(Ph.get_meds(_pat_id,_date));\r\n    }\r\n\r\n    // Get Nurse Details\r\n    function getNurseDetails(address _Contract,uint _pat_id)public view returns(uint, string memory, uint, string memory, uint, string memory){\r\n        Nurse N = Nurse(_Contract);\r\n        return(N.getNurseInfo(_pat_id));\r\n    }\r\n\r\n    //Get and Set Doctor Visits\r\n    function setDocVisit(uint _pat_id, string memory _month, string memory _date)external{\r\n        Visits[_pat_id][_month].push(_date);\r\n    }\r\n    function getDocVisit(uint _pat_id, string memory _month)public view returns(uint, string[] memory){\r\n        return(Visits[_pat_id][_month].length, Visits[_pat_id][_month]);\r\n    }\r\n    //\r\n}",
  "sourcePath": "D:\\Storage\\Extras\\College_Material\\Project\\home-mgmt\\contracts\\_Patient.sol",
  "compiler": {
    "name": "solc",
    "version": "0.8.15+commit.e14f2714.Emscripten.clang"
  },
  "schemaVersion": "3.4.8",
  "updatedAt": "2022-08-19T21:05:36.091Z",
  "devdoc": {
    "kind": "dev",
    "methods": {},
    "version": 1
  },
  "userdoc": {
    "kind": "user",
    "methods": {},
    "version": 1
  }
}