{
  "contractName": "Doctor",
  "abi": [
    {
      "inputs": [
        {
          "internalType": "address",
          "name": "_address",
          "type": "address"
        },
        {
          "internalType": "uint256",
          "name": "_id",
          "type": "uint256"
        },
        {
          "internalType": "string",
          "name": "_name",
          "type": "string"
        },
        {
          "internalType": "uint256",
          "name": "_age",
          "type": "uint256"
        },
        {
          "internalType": "string",
          "name": "_gender",
          "type": "string"
        },
        {
          "internalType": "uint256",
          "name": "_phone_no",
          "type": "uint256"
        },
        {
          "internalType": "string",
          "name": "_date",
          "type": "string"
        }
      ],
      "name": "addDoc",
      "outputs": [],
      "stateMutability": "nonpayable",
      "type": "function"
    },
    {
      "inputs": [
        {
          "internalType": "uint256",
          "name": "_patient_id",
          "type": "uint256"
        },
        {
          "internalType": "uint256",
          "name": "_pres_id",
          "type": "uint256"
        },
        {
          "internalType": "string",
          "name": "_time",
          "type": "string"
        },
        {
          "internalType": "string",
          "name": "_Date_of_Prescription",
          "type": "string"
        },
        {
          "internalType": "string",
          "name": "_pres_meds",
          "type": "string"
        },
        {
          "internalType": "uint256",
          "name": "_DoctorId",
          "type": "uint256"
        }
      ],
      "name": "setPrescription",
      "outputs": [],
      "stateMutability": "nonpayable",
      "type": "function"
    },
    {
      "inputs": [
        {
          "internalType": "uint256",
          "name": "_patient_id",
          "type": "uint256"
        },
        {
          "internalType": "string",
          "name": "_date",
          "type": "string"
        },
        {
          "internalType": "uint256",
          "name": "_prescription_id",
          "type": "uint256"
        }
      ],
      "name": "getPrescription",
      "outputs": [
        {
          "internalType": "uint256",
          "name": "",
          "type": "uint256"
        },
        {
          "internalType": "uint256",
          "name": "",
          "type": "uint256"
        },
        {
          "internalType": "string",
          "name": "",
          "type": "string"
        },
        {
          "internalType": "string",
          "name": "",
          "type": "string"
        },
        {
          "internalType": "string[]",
          "name": "",
          "type": "string[]"
        },
        {
          "internalType": "uint256",
          "name": "",
          "type": "uint256"
        }
      ],
      "stateMutability": "view",
      "type": "function"
    },
    {
      "inputs": [
        {
          "internalType": "uint256",
          "name": "_doc_id",
          "type": "uint256"
        }
      ],
      "name": "getDocInfo",
      "outputs": [
        {
          "internalType": "uint256",
          "name": "",
          "type": "uint256"
        },
        {
          "internalType": "string",
          "name": "",
          "type": "string"
        },
        {
          "internalType": "uint256",
          "name": "",
          "type": "uint256"
        },
        {
          "internalType": "string",
          "name": "",
          "type": "string"
        },
        {
          "internalType": "uint256",
          "name": "",
          "type": "uint256"
        },
        {
          "internalType": "string",
          "name": "",
          "type": "string"
        }
      ],
      "stateMutability": "view",
      "type": "function"
    },
    {
      "inputs": [
        {
          "internalType": "address",
          "name": "_Contract",
          "type": "address"
        },
        {
          "internalType": "uint256",
          "name": "_pat_id",
          "type": "uint256"
        }
      ],
      "name": "getPatientRecords",
      "outputs": [
        {
          "internalType": "string",
          "name": "",
          "type": "string"
        },
        {
          "internalType": "uint256",
          "name": "",
          "type": "uint256"
        },
        {
          "internalType": "string",
          "name": "",
          "type": "string"
        },
        {
          "internalType": "uint256",
          "name": "",
          "type": "uint256"
        },
        {
          "internalType": "string",
          "name": "",
          "type": "string"
        },
        {
          "internalType": "uint256",
          "name": "",
          "type": "uint256"
        },
        {
          "internalType": "string",
          "name": "",
          "type": "string"
        },
        {
          "internalType": "uint256",
          "name": "",
          "type": "uint256"
        }
      ],
      "stateMutability": "view",
      "type": "function"
    },
    {
      "inputs": [
        {
          "internalType": "address",
          "name": "_Contract",
          "type": "address"
        },
        {
          "internalType": "uint256",
          "name": "_patient_id",
          "type": "uint256"
        },
        {
          "internalType": "string",
          "name": "_date",
          "type": "string"
        }
      ],
      "name": "getMedicalRecords",
      "outputs": [
        {
          "internalType": "string",
          "name": "",
          "type": "string"
        },
        {
          "internalType": "uint256",
          "name": "",
          "type": "uint256"
        },
        {
          "internalType": "string[]",
          "name": "",
          "type": "string[]"
        },
        {
          "internalType": "string[]",
          "name": "",
          "type": "string[]"
        },
        {
          "internalType": "string[]",
          "name": "",
          "type": "string[]"
        }
      ],
      "stateMutability": "view",
      "type": "function"
    },
    {
      "inputs": [
        {
          "internalType": "address",
          "name": "_Contract",
          "type": "address"
        },
        {
          "internalType": "uint256",
          "name": "_pat_id",
          "type": "uint256"
        }
      ],
      "name": "getLabReport",
      "outputs": [
        {
          "internalType": "string",
          "name": "",
          "type": "string"
        },
        {
          "internalType": "uint256",
          "name": "",
          "type": "uint256"
        },
        {
          "internalType": "uint256",
          "name": "",
          "type": "uint256"
        },
        {
          "internalType": "uint256",
          "name": "",
          "type": "uint256"
        },
        {
          "internalType": "string",
          "name": "",
          "type": "string"
        },
        {
          "internalType": "uint256",
          "name": "",
          "type": "uint256"
        },
        {
          "internalType": "string[]",
          "name": "",
          "type": "string[]"
        },
        {
          "internalType": "string[]",
          "name": "",
          "type": "string[]"
        }
      ],
      "stateMutability": "view",
      "type": "function"
    },
    {
      "inputs": [
        {
          "internalType": "address",
          "name": "_Contract",
          "type": "address"
        },
        {
          "internalType": "uint256",
          "name": "_pat_id",
          "type": "uint256"
        },
        {
          "internalType": "string",
          "name": "_test_id",
          "type": "string"
        }
      ],
      "name": "getTestReport",
      "outputs": [
        {
          "internalType": "string",
          "name": "",
          "type": "string"
        },
        {
          "internalType": "uint256",
          "name": "",
          "type": "uint256"
        },
        {
          "internalType": "string",
          "name": "",
          "type": "string"
        }
      ],
      "stateMutability": "view",
      "type": "function"
    },
    {
      "inputs": [
        {
          "internalType": "uint256",
          "name": "_pat_id",
          "type": "uint256"
        }
      ],
      "name": "setPatientExistence",
      "outputs": [],
      "stateMutability": "nonpayable",
      "type": "function"
    },
    {
      "inputs": [
        {
          "internalType": "address",
          "name": "_Contract",
          "type": "address"
        },
        {
          "internalType": "uint256",
          "name": "pat_id",
          "type": "uint256"
        },
        {
          "internalType": "string",
          "name": "_month",
          "type": "string"
        },
        {
          "internalType": "string",
          "name": "_date",
          "type": "string"
        }
      ],
      "name": "setVisits",
      "outputs": [],
      "stateMutability": "nonpayable",
      "type": "function"
    }
  ],
  "bytecode": "0x608060405234801561001057600080fd5b50612a0a806100206000396000f3fe608060405234801561001057600080fd5b506004361061009e5760003560e01c80636d22fbe2116100665780636d22fbe21461017957806380d937b6146101ae57806386ffc595146101e557806388a3274e14610219578063a6ca25f3146102355761009e565b8063044a6072146100a3578063105c9c00146100d55780632874a75f146100f157806335a97b36146101285780636138fede14610144575b600080fd5b6100bd60048036038101906100b891906114f7565b610251565b6040516100cc939291906115fd565b60405180910390f35b6100ef60048036038101906100ea9190611642565b6102ed565b005b61010b60048036038101906101069190611738565b610566565b60405161011f989796959493929190611778565b60405180910390f35b610142600480360381019061013d9190611812565b610617565b005b61015e600480360381019061015991906118f3565b6109b2565b60405161017096959493929190611920565b60405180910390f35b610193600480360381019061018e9190611996565b610c6d565b6040516101a596959493929190611b11565b60405180910390f35b6101c860048036038101906101c39190611738565b610f32565b6040516101dc989796959493929190611b87565b60405180910390f35b6101ff60048036038101906101fa91906114f7565b610fe2565b604051610210959493929190611c21565b60405180910390f35b610233600480360381019061022e91906118f3565b611087565b005b61024f600480360381019061024a9190611c90565b6110b6565b005b60606000606060008690508073ffffffffffffffffffffffffffffffffffffffff16630f941a1587876040518363ffffffff1660e01b8152600401610297929190611d2f565b600060405180830381865afa1580156102b4573d6000803e3d6000fd5b505050506040513d6000823e3d601f19601f820116820180604052508101906102dd9190611de4565b9350935093505093509350939050565b60011515601260003373ffffffffffffffffffffffffffffffffffffffff1673ffffffffffffffffffffffffffffffffffffffff16815260200190815260200160002060009054906101000a900460ff16151514610380576040517f08c379a000000000000000000000000000000000000000000000000000000000815260040161037790611ebb565b60405180910390fd5b60011515600f600088815260200190815260200160002060060160009054906101000a900460ff16151514610522576001601260008973ffffffffffffffffffffffffffffffffffffffff1673ffffffffffffffffffffffffffffffffffffffff16815260200190815260200160002060006101000a81548160ff021916908315150217905550856000800181905550846000600101908161042291906120e7565b5083600060020181905550826000600301908161043f91906120e7565b5081600060040181905550806000600501908161045c91906120e7565b506001600060060160006101000a81548160ff0219169083151502179055506000600f600088815260200190815260200160002060008201548160000155600182018160010190816104ae91906121cf565b5060028201548160020155600382018160030190816104cd91906121cf565b5060048201548160040155600582018160050190816104ec91906121cf565b506006820160009054906101000a900460ff168160060160006101000a81548160ff02191690831515021790555090505061055d565b6040517f08c379a000000000000000000000000000000000000000000000000000000000815260040161055490612329565b60405180910390fd5b50505050505050565b60606000606060006060600060606000808a90508073ffffffffffffffffffffffffffffffffffffffff16637d3a67968b6040518263ffffffff1660e01b81526004016105b39190612349565b600060405180830381865afa1580156105d0573d6000803e3d6000fd5b505050506040513d6000823e3d601f19601f820116820180604052508101906105f99190612364565b98509850985098509850985098509850509295985092959890939650565b60011515601260003373ffffffffffffffffffffffffffffffffffffffff1673ffffffffffffffffffffffffffffffffffffffff16815260200190815260200160002060009054906101000a900460ff161515146106aa576040517f08c379a00000000000000000000000000000000000000000000000000000000081526004016106a190611ebb565b60405180910390fd5b600115156011600088815260200190815260200160002060009054906101000a900460ff16151514610711576040517f08c379a0000000000000000000000000000000000000000000000000000000008152600401610708906124d6565b60405180910390fd5b6001151560106000888152602001908152602001600020846040516107369190612532565b9081526020016040518091039020600087815260200190815260200160002060060160009054906101000a900460ff1615151461093357600e600081548092919061078090612578565b9190505550856007600101819055508460076002018190555083600760050190816107ab91906120e7565b5082600760030190816107be91906120e7565b50806007600001819055506001600760060160006101000a81548160ff0219169083151502179055506007601060008881526020019081526020016000208460405161080a9190612532565b908152602001604051809103902060008781526020019081526020016000206000820154816000015560018201548160010155600282015481600201556003820181600301908161085b91906121cf565b50600482018160040190805461087292919061122b565b506005820181600501908161088791906121cf565b506006820160009054906101000a900460ff168160060160006101000a81548160ff02191690831515021790555090505060106000878152602001908152602001600020836040516108d99190612532565b908152602001604051809103902060008681526020019081526020016000206004018290806001815401808255809150506001900390600052602060002001600090919091909150908161092d91906120e7565b506109aa565b60106000878152602001908152602001600020836040516109549190612532565b90815260200160405180910390206000868152602001908152602001600020600401829080600181540180825580915050600190039060005260206000200160009091909190915090816109a891906120e7565b505b505050505050565b60006060600060606000606060011515600f600089815260200190815260200160002060060160009054906101000a900460ff16151514610a28576040517f08c379a0000000000000000000000000000000000000000000000000000000008152600401610a1f9061260c565b60405180910390fd5b6000600f60008981526020019081526020016000206040518060e001604052908160008201548152602001600182018054610a6290611f0a565b80601f0160208091040260200160405190810160405280929190818152602001828054610a8e90611f0a565b8015610adb5780601f10610ab057610100808354040283529160200191610adb565b820191906000526020600020905b815481529060010190602001808311610abe57829003601f168201915b5050505050815260200160028201548152602001600382018054610afe90611f0a565b80601f0160208091040260200160405190810160405280929190818152602001828054610b2a90611f0a565b8015610b775780601f10610b4c57610100808354040283529160200191610b77565b820191906000526020600020905b815481529060010190602001808311610b5a57829003601f168201915b5050505050815260200160048201548152602001600582018054610b9a90611f0a565b80601f0160208091040260200160405190810160405280929190818152602001828054610bc690611f0a565b8015610c135780601f10610be857610100808354040283529160200191610c13565b820191906000526020600020905b815481529060010190602001808311610bf657829003601f168201915b505050505081526020016006820160009054906101000a900460ff1615151515815250509050806000015181602001518260400151836060015184608001518560a001519650965096509650965096505091939550919395565b6000806060806060600080601060008b815260200190815260200160002089604051610c999190612532565b908152602001604051809103902060008981526020019081526020016000206040518060e0016040529081600082015481526020016001820154815260200160028201548152602001600382018054610cf190611f0a565b80601f0160208091040260200160405190810160405280929190818152602001828054610d1d90611f0a565b8015610d6a5780601f10610d3f57610100808354040283529160200191610d6a565b820191906000526020600020905b815481529060010190602001808311610d4d57829003601f168201915b5050505050815260200160048201805480602002602001604051908101604052809291908181526020016000905b82821015610e44578382906000526020600020018054610db790611f0a565b80601f0160208091040260200160405190810160405280929190818152602001828054610de390611f0a565b8015610e305780601f10610e0557610100808354040283529160200191610e30565b820191906000526020600020905b815481529060010190602001808311610e1357829003601f168201915b505050505081526020019060010190610d98565b505050508152602001600582018054610e5c90611f0a565b80601f0160208091040260200160405190810160405280929190818152602001828054610e8890611f0a565b8015610ed55780601f10610eaa57610100808354040283529160200191610ed5565b820191906000526020600020905b815481529060010190602001808311610eb857829003601f168201915b505050505081526020016006820160009054906101000a900460ff1615151515815250509050806020015181604001518260a001518360600151846080015185600001519650965096509650965096505093975093979195509350565b606060008060006060600060608060008a90508073ffffffffffffffffffffffffffffffffffffffff1663d30196a38b6040518263ffffffff1660e01b8152600401610f7e9190612349565b600060405180830381865afa158015610f9b573d6000803e3d6000fd5b505050506040513d6000823e3d601f19601f82011682018060405250810190610fc49190612712565b98509850985098509850985098509850509295985092959890939650565b60606000606080606060008890508073ffffffffffffffffffffffffffffffffffffffff1663d75b95ec89896040518363ffffffff1660e01b815260040161102b929190611d2f565b600060405180830381865afa158015611048573d6000803e3d6000fd5b505050506040513d6000823e3d601f19601f820116820180604052508101906110719190612838565b9550955095509550955050939792965093509350565b60016011600083815260200190815260200160002060006101000a81548160ff02191690831515021790555050565b60011515601260003373ffffffffffffffffffffffffffffffffffffffff1673ffffffffffffffffffffffffffffffffffffffff16815260200190815260200160002060009054906101000a900460ff16151514611149576040517f08c379a000000000000000000000000000000000000000000000000000000000815260040161114090611ebb565b60405180910390fd5b600115156011600085815260200190815260200160002060009054906101000a900460ff161515146111b0576040517f08c379a00000000000000000000000000000000000000000000000000000000081526004016111a79061296f565b60405180910390fd5b60008490508073ffffffffffffffffffffffffffffffffffffffff166335048acc8585856040518463ffffffff1660e01b81526004016111f29392919061298f565b600060405180830381600087803b15801561120c57600080fd5b505af1158015611220573d6000803e3d6000fd5b505050505050505050565b8280548282559060005260206000209081019282156112775760005260206000209182015b82811115611276578282908161126691906121cf565b5091600101919060010190611250565b5b5090506112849190611288565b5090565b5b808211156112a8576000818161129f91906112ac565b50600101611289565b5090565b5080546112b890611f0a565b6000825580601f106112ca57506112e9565b601f0160209004906000526020600020908101906112e891906112ec565b5b50565b5b808211156113055760008160009055506001016112ed565b5090565b6000604051905090565b600080fd5b600080fd5b600073ffffffffffffffffffffffffffffffffffffffff82169050919050565b60006113488261131d565b9050919050565b6113588161133d565b811461136357600080fd5b50565b6000813590506113758161134f565b92915050565b6000819050919050565b61138e8161137b565b811461139957600080fd5b50565b6000813590506113ab81611385565b92915050565b600080fd5b600080fd5b6000601f19601f8301169050919050565b7f4e487b7100000000000000000000000000000000000000000000000000000000600052604160045260246000fd5b611404826113bb565b810181811067ffffffffffffffff82111715611423576114226113cc565b5b80604052505050565b6000611436611309565b905061144282826113fb565b919050565b600067ffffffffffffffff821115611462576114616113cc565b5b61146b826113bb565b9050602081019050919050565b82818337600083830152505050565b600061149a61149584611447565b61142c565b9050828152602081018484840111156114b6576114b56113b6565b5b6114c1848285611478565b509392505050565b600082601f8301126114de576114dd6113b1565b5b81356114ee848260208601611487565b91505092915050565b6000806000606084860312156115105761150f611313565b5b600061151e86828701611366565b935050602061152f8682870161139c565b925050604084013567ffffffffffffffff8111156115505761154f611318565b5b61155c868287016114c9565b9150509250925092565b600081519050919050565b600082825260208201905092915050565b60005b838110156115a0578082015181840152602081019050611585565b838111156115af576000848401525b50505050565b60006115c082611566565b6115ca8185611571565b93506115da818560208601611582565b6115e3816113bb565b840191505092915050565b6115f78161137b565b82525050565b6000606082019050818103600083015261161781866115b5565b905061162660208301856115ee565b818103604083015261163881846115b5565b9050949350505050565b600080600080600080600060e0888a03121561166157611660611313565b5b600061166f8a828b01611366565b97505060206116808a828b0161139c565b965050604088013567ffffffffffffffff8111156116a1576116a0611318565b5b6116ad8a828b016114c9565b95505060606116be8a828b0161139c565b945050608088013567ffffffffffffffff8111156116df576116de611318565b5b6116eb8a828b016114c9565b93505060a06116fc8a828b0161139c565b92505060c088013567ffffffffffffffff81111561171d5761171c611318565b5b6117298a828b016114c9565b91505092959891949750929550565b6000806040838503121561174f5761174e611313565b5b600061175d85828601611366565b925050602061176e8582860161139c565b9150509250929050565b6000610100820190508181036000830152611793818b6115b5565b90506117a2602083018a6115ee565b81810360408301526117b481896115b5565b90506117c360608301886115ee565b81810360808301526117d581876115b5565b90506117e460a08301866115ee565b81810360c08301526117f681856115b5565b905061180560e08301846115ee565b9998505050505050505050565b60008060008060008060c0878903121561182f5761182e611313565b5b600061183d89828a0161139c565b965050602061184e89828a0161139c565b955050604087013567ffffffffffffffff81111561186f5761186e611318565b5b61187b89828a016114c9565b945050606087013567ffffffffffffffff81111561189c5761189b611318565b5b6118a889828a016114c9565b935050608087013567ffffffffffffffff8111156118c9576118c8611318565b5b6118d589828a016114c9565b92505060a06118e689828a0161139c565b9150509295509295509295565b60006020828403121561190957611908611313565b5b60006119178482850161139c565b91505092915050565b600060c08201905061193560008301896115ee565b818103602083015261194781886115b5565b905061195660408301876115ee565b818103606083015261196881866115b5565b905061197760808301856115ee565b81810360a083015261198981846115b5565b9050979650505050505050565b6000806000606084860312156119af576119ae611313565b5b60006119bd8682870161139c565b935050602084013567ffffffffffffffff8111156119de576119dd611318565b5b6119ea868287016114c9565b92505060406119fb8682870161139c565b9150509250925092565b600081519050919050565b600082825260208201905092915050565b6000819050602082019050919050565b600082825260208201905092915050565b6000611a4d82611566565b611a578185611a31565b9350611a67818560208601611582565b611a70816113bb565b840191505092915050565b6000611a878383611a42565b905092915050565b6000602082019050919050565b6000611aa782611a05565b611ab18185611a10565b935083602082028501611ac385611a21565b8060005b85811015611aff5784840389528151611ae08582611a7b565b9450611aeb83611a8f565b925060208a01995050600181019050611ac7565b50829750879550505050505092915050565b600060c082019050611b2660008301896115ee565b611b3360208301886115ee565b8181036040830152611b4581876115b5565b90508181036060830152611b5981866115b5565b90508181036080830152611b6d8185611a9c565b9050611b7c60a08301846115ee565b979650505050505050565b6000610100820190508181036000830152611ba2818b6115b5565b9050611bb1602083018a6115ee565b611bbe60408301896115ee565b611bcb60608301886115ee565b8181036080830152611bdd81876115b5565b9050611bec60a08301866115ee565b81810360c0830152611bfe8185611a9c565b905081810360e0830152611c128184611a9c565b90509998505050505050505050565b600060a0820190508181036000830152611c3b81886115b5565b9050611c4a60208301876115ee565b8181036040830152611c5c8186611a9c565b90508181036060830152611c708185611a9c565b90508181036080830152611c848184611a9c565b90509695505050505050565b60008060008060808587031215611caa57611ca9611313565b5b6000611cb887828801611366565b9450506020611cc98782880161139c565b935050604085013567ffffffffffffffff811115611cea57611ce9611318565b5b611cf6878288016114c9565b925050606085013567ffffffffffffffff811115611d1757611d16611318565b5b611d23878288016114c9565b91505092959194509250565b6000604082019050611d4460008301856115ee565b8181036020830152611d5681846115b5565b90509392505050565b6000611d72611d6d84611447565b61142c565b905082815260208101848484011115611d8e57611d8d6113b6565b5b611d99848285611582565b509392505050565b600082601f830112611db657611db56113b1565b5b8151611dc6848260208601611d5f565b91505092915050565b600081519050611dde81611385565b92915050565b600080600060608486031215611dfd57611dfc611313565b5b600084015167ffffffffffffffff811115611e1b57611e1a611318565b5b611e2786828701611da1565b9350506020611e3886828701611dcf565b925050604084015167ffffffffffffffff811115611e5957611e58611318565b5b611e6586828701611da1565b9150509250925092565b7f4143434553532044454e4945442c204e4f54204120444f43544f520000000000600082015250565b6000611ea5601b83611571565b9150611eb082611e6f565b602082019050919050565b60006020820190508181036000830152611ed481611e98565b9050919050565b7f4e487b7100000000000000000000000000000000000000000000000000000000600052602260045260246000fd5b60006002820490506001821680611f2257607f821691505b602082108103611f3557611f34611edb565b5b50919050565b60008190508160005260206000209050919050565b60006020601f8301049050919050565b600082821b905092915050565b600060088302611f9d7fffffffffffffffffffffffffffffffffffffffffffffffffffffffffffffffff82611f60565b611fa78683611f60565b95508019841693508086168417925050509392505050565b6000819050919050565b6000611fe4611fdf611fda8461137b565b611fbf565b61137b565b9050919050565b6000819050919050565b611ffe83611fc9565b61201261200a82611feb565b848454611f6d565b825550505050565b600090565b61202761201a565b612032818484611ff5565b505050565b5b818110156120565761204b60008261201f565b600181019050612038565b5050565b601f82111561209b5761206c81611f3b565b61207584611f50565b81016020851015612084578190505b61209861209085611f50565b830182612037565b50505b505050565b600082821c905092915050565b60006120be600019846008026120a0565b1980831691505092915050565b60006120d783836120ad565b9150826002028217905092915050565b6120f082611566565b67ffffffffffffffff811115612109576121086113cc565b5b6121138254611f0a565b61211e82828561205a565b600060209050601f831160018114612151576000841561213f578287015190505b61214985826120cb565b8655506121b1565b601f19841661215f86611f3b565b60005b8281101561218757848901518255600182019150602085019450602081019050612162565b868310156121a457848901516121a0601f8916826120ad565b8355505b6001600288020188555050505b505050505050565b6000815490506121c881611f0a565b9050919050565b8181036121dd5750506122b5565b6121e6826121b9565b67ffffffffffffffff8111156121ff576121fe6113cc565b5b6122098254611f0a565b61221482828561205a565b6000601f8311600181146122435760008415612231578287015490505b61223b85826120cb565b8655506122ae565b601f19841661225187611f3b565b965061225c86611f3b565b60005b828110156122845784890154825560018201915060018501945060208101905061225f565b868310156122a1578489015461229d601f8916826120ad565b8355505b6001600288020188555050505b5050505050505b565b7f446f63746f722077697468207468617420496420616c7265616479206578697360008201527f74732e0000000000000000000000000000000000000000000000000000000000602082015250565b6000612313602383611571565b915061231e826122b7565b604082019050919050565b6000602082019050818103600083015261234281612306565b9050919050565b600060208201905061235e60008301846115ee565b92915050565b600080600080600080600080610100898b03121561238557612384611313565b5b600089015167ffffffffffffffff8111156123a3576123a2611318565b5b6123af8b828c01611da1565b98505060206123c08b828c01611dcf565b975050604089015167ffffffffffffffff8111156123e1576123e0611318565b5b6123ed8b828c01611da1565b96505060606123fe8b828c01611dcf565b955050608089015167ffffffffffffffff81111561241f5761241e611318565b5b61242b8b828c01611da1565b94505060a061243c8b828c01611dcf565b93505060c089015167ffffffffffffffff81111561245d5761245c611318565b5b6124698b828c01611da1565b92505060e061247a8b828c01611dcf565b9150509295985092959890939650565b7f50617469656e7420646f6573206e6f742065786973742e000000000000000000600082015250565b60006124c0601783611571565b91506124cb8261248a565b602082019050919050565b600060208201905081810360008301526124ef816124b3565b9050919050565b600081905092915050565b600061250c82611566565b61251681856124f6565b9350612526818560208601611582565b80840191505092915050565b600061253e8284612501565b915081905092915050565b7f4e487b7100000000000000000000000000000000000000000000000000000000600052601160045260246000fd5b60006125838261137b565b91507fffffffffffffffffffffffffffffffffffffffffffffffffffffffffffffffff82036125b5576125b4612549565b5b600182019050919050565b7f50617469656e7420446f6573204e6f742045786973742e000000000000000000600082015250565b60006125f6601783611571565b9150612601826125c0565b602082019050919050565b60006020820190508181036000830152612625816125e9565b9050919050565b600067ffffffffffffffff821115612647576126466113cc565b5b602082029050602081019050919050565b600080fd5b600061267061266b8461262c565b61142c565b9050808382526020820190506020840283018581111561269357612692612658565b5b835b818110156126da57805167ffffffffffffffff8111156126b8576126b76113b1565b5b8086016126c58982611da1565b85526020850194505050602081019050612695565b5050509392505050565b600082601f8301126126f9576126f86113b1565b5b815161270984826020860161265d565b91505092915050565b600080600080600080600080610100898b03121561273357612732611313565b5b600089015167ffffffffffffffff81111561275157612750611318565b5b61275d8b828c01611da1565b985050602061276e8b828c01611dcf565b975050604061277f8b828c01611dcf565b96505060606127908b828c01611dcf565b955050608089015167ffffffffffffffff8111156127b1576127b0611318565b5b6127bd8b828c01611da1565b94505060a06127ce8b828c01611dcf565b93505060c089015167ffffffffffffffff8111156127ef576127ee611318565b5b6127fb8b828c016126e4565b92505060e089015167ffffffffffffffff81111561281c5761281b611318565b5b6128288b828c016126e4565b9150509295985092959890939650565b600080600080600060a0868803121561285457612853611313565b5b600086015167ffffffffffffffff81111561287257612871611318565b5b61287e88828901611da1565b955050602061288f88828901611dcf565b945050604086015167ffffffffffffffff8111156128b0576128af611318565b5b6128bc888289016126e4565b935050606086015167ffffffffffffffff8111156128dd576128dc611318565b5b6128e9888289016126e4565b925050608086015167ffffffffffffffff81111561290a57612909611318565b5b612916888289016126e4565b9150509295509295909350565b7f496e76616c69642050617469656e742049440000000000000000000000000000600082015250565b6000612959601283611571565b915061296482612923565b602082019050919050565b600060208201905081810360008301526129888161294c565b9050919050565b60006060820190506129a460008301866115ee565b81810360208301526129b681856115b5565b905081810360408301526129ca81846115b5565b905094935050505056fea26469706673582212204cece00dc8a4259726354f1f51acb7fdd77d7609080e37431a04e30a3203e45b64736f6c634300080f0033",
  "immutableReferences": {},
  "source": "// SPDX-License-Identifier: MIT\r\npragma solidity >=0.4.22 <0.9.0;\r\nimport './_Patient.sol';\r\nimport './_Attendant.sol';\r\nimport './Laboratory.sol';\r\n\r\ncontract Doctor{\r\n\r\n    struct doc_details{\r\n        uint doctor_id;\r\n        string name;\r\n        uint age;\r\n        string gender;\r\n        uint phone_no;\r\n        string join_date;\r\n        bool exist;\r\n    }\r\n    doc_details D;\r\n\r\n    struct prescription_Detail {\r\n        uint doctor_id;\r\n        uint patient_id;\r\n        uint prescription_id;\r\n        string prescription_date;\r\n        string[] prescribed_meds;\r\n        string time;\r\n        bool exist;\r\n    }\r\n    prescription_Detail x;\r\n\r\n    uint prescription_Count;\r\n    mapping(uint=>doc_details) Doctors;\r\n    mapping(uint =>mapping(string=>mapping(uint=>prescription_Detail))) Prescriptions;\r\n    mapping(uint=>bool) pat_does_exist;\r\n\r\n     // Access Modifier\r\n    mapping(address => bool) Doc_exist;\r\n    //constructor() {Doc_exist[0x5B38Da6a701c568545dCfcB03FcB875f56beddC4] = true;} //For Debugging\r\n    function addDoc(address _address, uint _id, string memory _name, uint _age, string memory _gender, uint _phone_no, string memory _date) external isDoc{\r\n            if(Doctors[_id].exist != true){\r\n                Doc_exist[_address] = true;\r\n                D.doctor_id = _id;\r\n                D.name = _name;\r\n                D.age = _age;\r\n                D.gender = _gender;\r\n                D.phone_no = _phone_no;\r\n                D.join_date = _date;\r\n                D.exist = true;\r\n                Doctors[_id] = D;\r\n            }else{revert(\"Doctor with that Id already exists.\");}\r\n        }\r\n    modifier isDoc(){\r\n        require(Doc_exist[msg.sender] == true,\"ACCESS DENIED, NOT A DOCTOR\");\r\n        _;\r\n    }\r\n\r\n    function setPrescription(uint _patient_id, uint _pres_id,string memory _time, string memory _Date_of_Prescription,string memory _pres_meds, uint _DoctorId) public isDoc{\r\n       require(pat_does_exist[_patient_id] == true, \"Patient does not exist.\");\r\n       if(Prescriptions[_patient_id][_Date_of_Prescription][_pres_id].exist != true){\r\n            prescription_Count++;\r\n            x.patient_id = _patient_id;\r\n            x.prescription_id = _pres_id;\r\n            x.time = _time;\r\n            x.prescription_date = _Date_of_Prescription;\r\n            x.doctor_id = _DoctorId;\r\n            x.exist = true;\r\n            Prescriptions[_patient_id][_Date_of_Prescription][_pres_id] = x;\r\n            Prescriptions[_patient_id][_Date_of_Prescription][_pres_id].prescribed_meds.push(_pres_meds);\r\n       }else{\r\n           Prescriptions[_patient_id][_Date_of_Prescription][_pres_id].prescribed_meds.push(_pres_meds);\r\n        }\r\n    }\r\n\r\n    function getPrescription(uint _patient_id,string memory _date, uint _prescription_id)external view returns(uint,uint,string memory, string memory,string[] memory,uint){\r\n         prescription_Detail memory pt = Prescriptions[_patient_id][_date][_prescription_id];\r\n        return(pt.patient_id,pt.prescription_id,pt.time,pt.prescription_date,pt.prescribed_meds,pt.doctor_id);\r\n    }\r\n\r\n    function getDocInfo(uint _doc_id)external view returns(uint,string memory,uint, string memory, uint, string memory){\r\n            require(Doctors[_doc_id].exist == true,\"Patient Does Not Exist.\");\r\n            doc_details memory DD = Doctors[_doc_id];\r\n            return(DD.doctor_id,DD.name,DD.age,DD.gender,DD.phone_no,DD.join_date);\r\n    }\r\n\r\n    //Get Patient Records; START\r\n    function getPatientRecords(address _Contract,uint _pat_id)public view returns(string memory,uint,string memory, uint, string memory, uint,string memory,uint){\r\n        _Patient P = _Patient(_Contract);\r\n        return(P.getPatient(_pat_id));\r\n    }\r\n\r\n    function getMedicalRecords(address _Contract, uint _patient_id, string memory _date)public view returns(string memory,uint, string[] memory,string[] memory,string[] memory){\r\n        _Attendant At = _Attendant(_Contract);\r\n        return(At.get_MedData(_patient_id, _date));\r\n    }\r\n    //END OF FUNCTION\r\n\r\n    // Get Patient Lab Results\r\n    function getLabReport(address _Contract, uint _pat_id)public view returns(string memory, uint,uint,uint,string memory,uint,string[] memory, string[] memory){\r\n        Laboratory L = Laboratory(_Contract);\r\n        return(L.get_report(_pat_id));\r\n    }\r\n    function getTestReport(address _Contract,uint _pat_id, string memory _test_id)public view returns(string memory, uint, string memory){\r\n        Laboratory L = Laboratory(_Contract);\r\n        return(L.get_test(_pat_id,_test_id));\r\n    }\r\n\r\n    //Patient Existence;\r\n     function setPatientExistence(uint _pat_id)external{\r\n        pat_does_exist[_pat_id] = true;\r\n    }\r\n\r\n    // Set Doctor Visit\r\n    function setVisits(address _Contract, uint pat_id, string memory _month, string memory _date)public isDoc{\r\n        require(pat_does_exist[pat_id] == true, \"Invalid Patient ID\");\r\n        _Patient P = _Patient(_Contract);\r\n        P.setDocVisit(pat_id,_month,_date);\r\n    }\r\n      \r\n}\r\n",
  "sourcePath": "D:\\Storage\\Extras\\College_Material\\Project\\home-mgmt\\contracts\\Doctor.sol",
  "compiler": {
    "name": "solc",
    "version": "0.8.15+commit.e14f2714.Emscripten.clang"
  },
  "schemaVersion": "3.4.8",
  "updatedAt": "2022-08-19T21:05:35.551Z",
  "devdoc": {
    "kind": "dev",
    "methods": {},
    "version": 1
  },
  "userdoc": {
    "kind": "user",
    "methods": {},
    "version": 1
  }
}