{
  "contractName": "Laboratory",
  "abi": [
    {
      "inputs": [
        {
          "internalType": "address",
          "name": "_address",
          "type": "address"
        }
      ],
      "name": "addLab",
      "outputs": [],
      "stateMutability": "nonpayable",
      "type": "function"
    },
    {
      "inputs": [
        {
          "internalType": "string",
          "name": "_name",
          "type": "string"
        },
        {
          "internalType": "uint256",
          "name": "_patient_id",
          "type": "uint256"
        },
        {
          "internalType": "uint256",
          "name": "_doctor_id",
          "type": "uint256"
        },
        {
          "internalType": "uint256",
          "name": "_lab_id",
          "type": "uint256"
        },
        {
          "internalType": "string",
          "name": "_date",
          "type": "string"
        }
      ],
      "name": "add_details",
      "outputs": [],
      "stateMutability": "nonpayable",
      "type": "function"
    },
    {
      "inputs": [
        {
          "internalType": "uint256",
          "name": "_pat_id",
          "type": "uint256"
        },
        {
          "internalType": "string",
          "name": "_test_name",
          "type": "string"
        },
        {
          "internalType": "string",
          "name": "_test_id",
          "type": "string"
        },
        {
          "internalType": "uint256",
          "name": "_cost",
          "type": "uint256"
        },
        {
          "internalType": "string",
          "name": "_note",
          "type": "string"
        }
      ],
      "name": "add_tests",
      "outputs": [],
      "stateMutability": "nonpayable",
      "type": "function"
    },
    {
      "inputs": [
        {
          "internalType": "uint256",
          "name": "_pat_id",
          "type": "uint256"
        }
      ],
      "name": "get_report",
      "outputs": [
        {
          "internalType": "string",
          "name": "",
          "type": "string"
        },
        {
          "internalType": "uint256",
          "name": "",
          "type": "uint256"
        },
        {
          "internalType": "uint256",
          "name": "",
          "type": "uint256"
        },
        {
          "internalType": "uint256",
          "name": "",
          "type": "uint256"
        },
        {
          "internalType": "string",
          "name": "",
          "type": "string"
        },
        {
          "internalType": "uint256",
          "name": "",
          "type": "uint256"
        },
        {
          "internalType": "string[]",
          "name": "",
          "type": "string[]"
        },
        {
          "internalType": "string[]",
          "name": "",
          "type": "string[]"
        }
      ],
      "stateMutability": "view",
      "type": "function"
    },
    {
      "inputs": [
        {
          "internalType": "uint256",
          "name": "_pat_id",
          "type": "uint256"
        },
        {
          "internalType": "string",
          "name": "_test_id",
          "type": "string"
        }
      ],
      "name": "get_test",
      "outputs": [
        {
          "internalType": "string",
          "name": "",
          "type": "string"
        },
        {
          "internalType": "uint256",
          "name": "",
          "type": "uint256"
        },
        {
          "internalType": "string",
          "name": "",
          "type": "string"
        }
      ],
      "stateMutability": "view",
      "type": "function"
    }
  ],
  "bytecode": "0x608060405234801561001057600080fd5b50611cbb806100206000396000f3fe608060405234801561001057600080fd5b50600436106100575760003560e01c80630f941a151461005c5780633aa787231461008e57806343096fd0146100aa578063a9e9e3ce146100c6578063d30196a3146100e2575b600080fd5b6100766004803603810190610071919061115d565b610119565b60405161008593929190611250565b60405180910390f35b6100a860048036038101906100a391906112f3565b6102c3565b005b6100c460048036038101906100bf9190611320565b61031e565b005b6100e060048036038101906100db91906113ef565b610634565b005b6100fc60048036038101906100f791906114a2565b6108ad565b6040516101109897969594939291906115db565b60405180910390f35b6060600060606000600b60008781526020019081526020016000208560405161014291906116b1565b908152602001604051809103902060405180608001604052908160008201805461016b906116f7565b80601f0160208091040260200160405190810160405280929190818152602001828054610197906116f7565b80156101e45780601f106101b9576101008083540402835291602001916101e4565b820191906000526020600020905b8154815290600101906020018083116101c757829003601f168201915b5050505050815260200160018201548152602001600282018054610207906116f7565b80601f0160208091040260200160405190810160405280929190818152602001828054610233906116f7565b80156102805780601f1061025557610100808354040283529160200191610280565b820191906000526020600020905b81548152906001019060200180831161026357829003601f168201915b505050505081526020016003820160009054906101000a900460ff1615151515815250509050806000015181602001518260400151935093509350509250925092565b6001600d60008373ffffffffffffffffffffffffffffffffffffffff1673ffffffffffffffffffffffffffffffffffffffff16815260200190815260200160002060006101000a81548160ff02191690831515021790555050565b60011515600d60003373ffffffffffffffffffffffffffffffffffffffff1673ffffffffffffffffffffffffffffffffffffffff16815260200190815260200160002060009054906101000a900460ff161515146103b1576040517f08c379a00000000000000000000000000000000000000000000000000000000081526004016103a89061179a565b60405180910390fd5b6000600c6000878152602001908152602001600020905060011515600b6000888152602001908152602001600020856040516103ed91906116b1565b908152602001604051809103902060030160009054906101000a900460ff161515146105f157604051806080016040528086815260200184815260200183815260200160011515815250600b60008881526020019081526020016000208560405161045891906116b1565b9081526020016040518091039020600082015181600001908161047b9190611966565b5060208201518160010155604082015181600201908161049b9190611966565b5060608201518160030160006101000a81548160ff02191690831515021790555090505080600601859080600181540180825580915050600190039060005260206000200160009091909190915090816104f59190611966565b50806007018490806001815401808255809150506001900390600052602060002001600090919091909150908161052c9190611966565b5080600801600b60008881526020019081526020016000208560405161055291906116b1565b908152602001604051809103902090806001815401808255809150506001900390600052602060002090600402016000909190919091506000820181600001908161059d9190611a4e565b5060018201548160010155600282018160020190816105bc9190611a4e565b506003820160009054906101000a900460ff168160030160006101000a81548160ff021916908315150217905550505061062c565b6040517f08c379a000000000000000000000000000000000000000000000000000000000815260040161062390611b82565b60405180910390fd5b505050505050565b60011515600d60003373ffffffffffffffffffffffffffffffffffffffff1673ffffffffffffffffffffffffffffffffffffffff16815260200190815260200160002060009054906101000a900460ff161515146106c7576040517f08c379a00000000000000000000000000000000000000000000000000000000081526004016106be9061179a565b60405180910390fd5b60011515600c600086815260200190815260200160002060090160009054906101000a900460ff1615151461086b57600a600081548092919061070990611bd1565b91905055508460008001908161071f9190611966565b5083600060010181905550826000600201819055508160006003018190555080600060040190816107509190611966565b506000600501600081548092919061076790611bd1565b91905055506001600060090160006101000a81548160ff0219169083151502179055506000600c6000868152602001908152602001600020600082018160000190816107b39190611a4e565b50600182015481600101556002820154816002015560038201548160030155600482018160040190816107e69190611a4e565b50600582015481600501556006820181600601908054610807929190610de3565b50600782018160070190805461081e929190610de3565b506008820181600801908054610835929190610e40565b506009820160009054906101000a900460ff168160090160006101000a81548160ff0219169083151502179055509050506108a6565b6040517f08c379a000000000000000000000000000000000000000000000000000000000815260040161089d90611c65565b60405180910390fd5b5050505050565b60606000806000606060006060806000600c60008b8152602001908152602001600020604051806101400160405290816000820180546108ec906116f7565b80601f0160208091040260200160405190810160405280929190818152602001828054610918906116f7565b80156109655780601f1061093a57610100808354040283529160200191610965565b820191906000526020600020905b81548152906001019060200180831161094857829003601f168201915b5050505050815260200160018201548152602001600282015481526020016003820154815260200160048201805461099c906116f7565b80601f01602080910402602001604051908101604052809291908181526020018280546109c8906116f7565b8015610a155780601f106109ea57610100808354040283529160200191610a15565b820191906000526020600020905b8154815290600101906020018083116109f857829003601f168201915b505050505081526020016005820154815260200160068201805480602002602001604051908101604052809291908181526020016000905b82821015610af9578382906000526020600020018054610a6c906116f7565b80601f0160208091040260200160405190810160405280929190818152602001828054610a98906116f7565b8015610ae55780601f10610aba57610100808354040283529160200191610ae5565b820191906000526020600020905b815481529060010190602001808311610ac857829003601f168201915b505050505081526020019060010190610a4d565b50505050815260200160078201805480602002602001604051908101604052809291908181526020016000905b82821015610bd2578382906000526020600020018054610b45906116f7565b80601f0160208091040260200160405190810160405280929190818152602001828054610b71906116f7565b8015610bbe5780601f10610b9357610100808354040283529160200191610bbe565b820191906000526020600020905b815481529060010190602001808311610ba157829003601f168201915b505050505081526020019060010190610b26565b50505050815260200160088201805480602002602001604051908101604052809291908181526020016000905b82821015610d7a5783829060005260206000209060040201604051806080016040529081600082018054610c32906116f7565b80601f0160208091040260200160405190810160405280929190818152602001828054610c5e906116f7565b8015610cab5780601f10610c8057610100808354040283529160200191610cab565b820191906000526020600020905b815481529060010190602001808311610c8e57829003601f168201915b5050505050815260200160018201548152602001600282018054610cce906116f7565b80601f0160208091040260200160405190810160405280929190818152602001828054610cfa906116f7565b8015610d475780601f10610d1c57610100808354040283529160200191610d47565b820191906000526020600020905b815481529060010190602001808311610d2a57829003601f168201915b505050505081526020016003820160009054906101000a900460ff16151515158152505081526020019060010190610bff565b5050505081526020016009820160009054906101000a900460ff1615151515815250509050806000015181602001518260400151836060015184608001518560a001518660c001518760e001519850985098509850985098509850985050919395975091939597565b828054828255906000526020600020908101928215610e2f5760005260206000209182015b82811115610e2e5782829081610e1e9190611a4e565b5091600101919060010190610e08565b5b509050610e3c9190610ef9565b5090565b828054828255906000526020600020906004028101928215610ee85760005260206000209160040282015b82811115610ee757828260008201816000019081610e899190611a4e565b506001820154816001015560028201816002019081610ea89190611a4e565b506003820160009054906101000a900460ff168160030160006101000a81548160ff021916908315150217905550505091600401919060040190610e6b565b5b509050610ef59190610f1d565b5090565b5b80821115610f195760008181610f109190610f70565b50600101610efa565b5090565b5b80821115610f6c5760008082016000610f379190610f70565b6001820160009055600282016000610f4f9190610f70565b6003820160006101000a81549060ff021916905550600401610f1e565b5090565b508054610f7c906116f7565b6000825580601f10610f8e5750610fad565b601f016020900490600052602060002090810190610fac9190610fb0565b5b50565b5b80821115610fc9576000816000905550600101610fb1565b5090565b6000604051905090565b600080fd5b600080fd5b6000819050919050565b610ff481610fe1565b8114610fff57600080fd5b50565b60008135905061101181610feb565b92915050565b600080fd5b600080fd5b6000601f19601f8301169050919050565b7f4e487b7100000000000000000000000000000000000000000000000000000000600052604160045260246000fd5b61106a82611021565b810181811067ffffffffffffffff8211171561108957611088611032565b5b80604052505050565b600061109c610fcd565b90506110a88282611061565b919050565b600067ffffffffffffffff8211156110c8576110c7611032565b5b6110d182611021565b9050602081019050919050565b82818337600083830152505050565b60006111006110fb846110ad565b611092565b90508281526020810184848401111561111c5761111b61101c565b5b6111278482856110de565b509392505050565b600082601f83011261114457611143611017565b5b81356111548482602086016110ed565b91505092915050565b6000806040838503121561117457611173610fd7565b5b600061118285828601611002565b925050602083013567ffffffffffffffff8111156111a3576111a2610fdc565b5b6111af8582860161112f565b9150509250929050565b600081519050919050565b600082825260208201905092915050565b60005b838110156111f35780820151818401526020810190506111d8565b83811115611202576000848401525b50505050565b6000611213826111b9565b61121d81856111c4565b935061122d8185602086016111d5565b61123681611021565b840191505092915050565b61124a81610fe1565b82525050565b6000606082019050818103600083015261126a8186611208565b90506112796020830185611241565b818103604083015261128b8184611208565b9050949350505050565b600073ffffffffffffffffffffffffffffffffffffffff82169050919050565b60006112c082611295565b9050919050565b6112d0816112b5565b81146112db57600080fd5b50565b6000813590506112ed816112c7565b92915050565b60006020828403121561130957611308610fd7565b5b6000611317848285016112de565b91505092915050565b600080600080600060a0868803121561133c5761133b610fd7565b5b600061134a88828901611002565b955050602086013567ffffffffffffffff81111561136b5761136a610fdc565b5b6113778882890161112f565b945050604086013567ffffffffffffffff81111561139857611397610fdc565b5b6113a48882890161112f565b93505060606113b588828901611002565b925050608086013567ffffffffffffffff8111156113d6576113d5610fdc565b5b6113e28882890161112f565b9150509295509295909350565b600080600080600060a0868803121561140b5761140a610fd7565b5b600086013567ffffffffffffffff81111561142957611428610fdc565b5b6114358882890161112f565b955050602061144688828901611002565b945050604061145788828901611002565b935050606061146888828901611002565b925050608086013567ffffffffffffffff81111561148957611488610fdc565b5b6114958882890161112f565b9150509295509295909350565b6000602082840312156114b8576114b7610fd7565b5b60006114c684828501611002565b91505092915050565b600081519050919050565b600082825260208201905092915050565b6000819050602082019050919050565b600082825260208201905092915050565b6000611517826111b9565b61152181856114fb565b93506115318185602086016111d5565b61153a81611021565b840191505092915050565b6000611551838361150c565b905092915050565b6000602082019050919050565b6000611571826114cf565b61157b81856114da565b93508360208202850161158d856114eb565b8060005b858110156115c957848403895281516115aa8582611545565b94506115b583611559565b925060208a01995050600181019050611591565b50829750879550505050505092915050565b60006101008201905081810360008301526115f6818b611208565b9050611605602083018a611241565b6116126040830189611241565b61161f6060830188611241565b81810360808301526116318187611208565b905061164060a0830186611241565b81810360c08301526116528185611566565b905081810360e08301526116668184611566565b90509998505050505050505050565b600081905092915050565b600061168b826111b9565b6116958185611675565b93506116a58185602086016111d5565b80840191505092915050565b60006116bd8284611680565b915081905092915050565b7f4e487b7100000000000000000000000000000000000000000000000000000000600052602260045260246000fd5b6000600282049050600182168061170f57607f821691505b602082108103611722576117216116c8565b5b50919050565b7f4163636573732044656e6965642c204e6f74206120726567697374657265642060008201527f506861726d6163792e0000000000000000000000000000000000000000000000602082015250565b60006117846029836111c4565b915061178f82611728565b604082019050919050565b600060208201905081810360008301526117b381611777565b9050919050565b60008190508160005260206000209050919050565b60006020601f8301049050919050565b600082821b905092915050565b60006008830261181c7fffffffffffffffffffffffffffffffffffffffffffffffffffffffffffffffff826117df565b61182686836117df565b95508019841693508086168417925050509392505050565b6000819050919050565b600061186361185e61185984610fe1565b61183e565b610fe1565b9050919050565b6000819050919050565b61187d83611848565b6118916118898261186a565b8484546117ec565b825550505050565b600090565b6118a6611899565b6118b1818484611874565b505050565b5b818110156118d5576118ca60008261189e565b6001810190506118b7565b5050565b601f82111561191a576118eb816117ba565b6118f4846117cf565b81016020851015611903578190505b61191761190f856117cf565b8301826118b6565b50505b505050565b600082821c905092915050565b600061193d6000198460080261191f565b1980831691505092915050565b6000611956838361192c565b9150826002028217905092915050565b61196f826111b9565b67ffffffffffffffff81111561198857611987611032565b5b61199282546116f7565b61199d8282856118d9565b600060209050601f8311600181146119d057600084156119be578287015190505b6119c8858261194a565b865550611a30565b601f1984166119de866117ba565b60005b82811015611a06578489015182556001820191506020850194506020810190506119e1565b86831015611a235784890151611a1f601f89168261192c565b8355505b6001600288020188555050505b505050505050565b600081549050611a47816116f7565b9050919050565b818103611a5c575050611b34565b611a6582611a38565b67ffffffffffffffff811115611a7e57611a7d611032565b5b611a8882546116f7565b611a938282856118d9565b6000601f831160018114611ac25760008415611ab0578287015490505b611aba858261194a565b865550611b2d565b601f198416611ad0876117ba565b9650611adb866117ba565b60005b82811015611b0357848901548255600182019150600185019450602081019050611ade565b86831015611b205784890154611b1c601f89168261192c565b8355505b6001600288020188555050505b5050505050505b565b7f5465737420494420616c7265616479206578697374732e000000000000000000600082015250565b6000611b6c6017836111c4565b9150611b7782611b36565b602082019050919050565b60006020820190508181036000830152611b9b81611b5f565b9050919050565b7f4e487b7100000000000000000000000000000000000000000000000000000000600052601160045260246000fd5b6000611bdc82610fe1565b91507fffffffffffffffffffffffffffffffffffffffffffffffffffffffffffffffff8203611c0e57611c0d611ba2565b5b600182019050919050565b7f50617469656e7420416c7265616479204578697374732e000000000000000000600082015250565b6000611c4f6017836111c4565b9150611c5a82611c19565b602082019050919050565b60006020820190508181036000830152611c7e81611c42565b905091905056fea2646970667358221220def7f00acd852060aeacc1aa5a389b7134a7793abfdd94081570101c009ff72064736f6c634300080f0033",
  "immutableReferences": {},
  "source": "// SPDX-License-Identifier: MIT\r\npragma solidity >=0.4.22 <0.9.0;\r\n\r\ncontract Laboratory{\r\n    \r\n    struct Test{\r\n        string test_name;\r\n        uint cost;\r\n        string note;\r\n        bool exist;\r\n    }\r\n\r\n    struct Lab_details{\r\n        string patient_name;\r\n        uint patient_id;\r\n        uint doctor_id;\r\n        uint Lab_id;\r\n        string date;\r\n        uint total_test;\r\n        string[] test_names;\r\n        string[] test_id;\r\n        Test[] Lab_report;\r\n        bool exist;\r\n    }\r\n\r\n    Lab_details x;\r\n    uint customer_count;\r\n    mapping(uint=>mapping(string=>Test)) Patient_Tests; //Nested-Mapping\r\n    mapping(uint=>Lab_details) Details;\r\n\r\n    // Access Modifier\r\n        mapping(address => bool) Lab_exists;\r\n        //constructor() {Lab_exists[0x5B38Da6a701c568545dCfcB03FcB875f56beddC4] = true;} //For Debugging\r\n        function addLab(address _address) external{\r\n            Lab_exists[_address] = true;\r\n        }\r\n\r\n        modifier isLab(){\r\n            require(Lab_exists[msg.sender]==true,\"Access Denied, Not a registered Pharmacy.\");\r\n            _;\r\n        }\r\n    //\r\n\r\n    function add_details(string memory _name, uint _patient_id, uint _doctor_id, uint _lab_id, string memory _date) public isLab{\r\n        if(Details[_patient_id].exist != true){\r\n            customer_count++;\r\n            x.patient_name = _name;\r\n            x.patient_id = _patient_id;\r\n            x.doctor_id = _doctor_id;\r\n            x.Lab_id = _lab_id;\r\n            x.date = _date;\r\n            x.total_test++;\r\n            x.exist = true;\r\n            Details[_patient_id] = x;\r\n        }else{revert(\"Patient Already Exists.\");}\r\n  \r\n    }\r\n\r\n    function add_tests(uint _pat_id, string memory _test_name, string memory _test_id,uint _cost, string memory _note)public isLab{\r\n        Lab_details storage ld = Details[_pat_id];\r\n        if(Patient_Tests[_pat_id][_test_id].exist != true){\r\n            Patient_Tests[_pat_id][_test_id] = Test({\r\n                test_name: _test_name,\r\n                cost: _cost,\r\n                note: _note,\r\n                exist: true\r\n        });\r\n            ld.test_names.push(_test_name);\r\n            ld.test_id.push(_test_id);\r\n            ld.Lab_report.push(Patient_Tests[_pat_id][_test_id]);\r\n        }else{revert(\"Test ID already exists.\");}\r\n     \r\n    }\r\n\r\n    function get_report(uint _pat_id)public view returns(string memory, uint,uint,uint,string memory,uint,string[] memory, string[] memory){\r\n        Lab_details memory ld = Details[_pat_id];\r\n        return(ld.patient_name,ld.patient_id,ld.doctor_id,ld.Lab_id,ld.date,ld.total_test,ld.test_names,ld.test_id);\r\n    }\r\n\r\n    function get_test(uint _pat_id, string memory _test_id)public view returns(string memory, uint, string memory){\r\n        Test memory tst = Patient_Tests[_pat_id][_test_id];\r\n        return(tst.test_name,tst.cost,tst.note);\r\n    }\r\n}",
  "sourcePath": "D:\\Storage\\Extras\\College_Material\\Project\\home-mgmt\\contracts\\Laboratory.sol",
  "compiler": {
    "name": "solc",
    "version": "0.8.15+commit.e14f2714.Emscripten.clang"
  },
  "schemaVersion": "3.4.8",
  "updatedAt": "2022-08-19T21:05:35.791Z",
  "devdoc": {
    "kind": "dev",
    "methods": {},
    "version": 1
  },
  "userdoc": {
    "kind": "user",
    "methods": {},
    "version": 1
  }
}