{
  "contractName": "Nurse",
  "abi": [
    {
      "inputs": [
        {
          "internalType": "address",
          "name": "_address",
          "type": "address"
        },
        {
          "internalType": "uint256",
          "name": "_id",
          "type": "uint256"
        },
        {
          "internalType": "string",
          "name": "_name",
          "type": "string"
        },
        {
          "internalType": "uint256",
          "name": "_age",
          "type": "uint256"
        },
        {
          "internalType": "string",
          "name": "_gender",
          "type": "string"
        },
        {
          "internalType": "uint256",
          "name": "_phone_no",
          "type": "uint256"
        },
        {
          "internalType": "string",
          "name": "_date",
          "type": "string"
        }
      ],
      "name": "addNurse",
      "outputs": [],
      "stateMutability": "nonpayable",
      "type": "function"
    },
    {
      "inputs": [
        {
          "internalType": "uint256",
          "name": "_patient_id",
          "type": "uint256"
        },
        {
          "internalType": "uint256",
          "name": "_nurse_id",
          "type": "uint256"
        },
        {
          "internalType": "string",
          "name": "_date",
          "type": "string"
        },
        {
          "internalType": "string",
          "name": "_patient_symptoms",
          "type": "string"
        },
        {
          "internalType": "string",
          "name": "_status",
          "type": "string"
        },
        {
          "internalType": "string",
          "name": "_note",
          "type": "string"
        }
      ],
      "name": "patient_Status",
      "outputs": [],
      "stateMutability": "nonpayable",
      "type": "function"
    },
    {
      "inputs": [
        {
          "internalType": "uint256",
          "name": "_patient_id",
          "type": "uint256"
        },
        {
          "internalType": "string",
          "name": "_date",
          "type": "string"
        }
      ],
      "name": "getPatient_status",
      "outputs": [
        {
          "internalType": "uint256",
          "name": "",
          "type": "uint256"
        },
        {
          "internalType": "uint256",
          "name": "",
          "type": "uint256"
        },
        {
          "internalType": "string",
          "name": "",
          "type": "string"
        },
        {
          "internalType": "string",
          "name": "",
          "type": "string"
        },
        {
          "internalType": "string",
          "name": "",
          "type": "string"
        },
        {
          "internalType": "string",
          "name": "",
          "type": "string"
        }
      ],
      "stateMutability": "view",
      "type": "function"
    },
    {
      "inputs": [
        {
          "internalType": "uint256",
          "name": "_id",
          "type": "uint256"
        }
      ],
      "name": "getNurseInfo",
      "outputs": [
        {
          "internalType": "uint256",
          "name": "",
          "type": "uint256"
        },
        {
          "internalType": "string",
          "name": "",
          "type": "string"
        },
        {
          "internalType": "uint256",
          "name": "",
          "type": "uint256"
        },
        {
          "internalType": "string",
          "name": "",
          "type": "string"
        },
        {
          "internalType": "uint256",
          "name": "",
          "type": "uint256"
        },
        {
          "internalType": "string",
          "name": "",
          "type": "string"
        }
      ],
      "stateMutability": "view",
      "type": "function"
    }
  ],
  "bytecode": "0x608060405234801561001057600080fd5b506115ab806100206000396000f3fe608060405234801561001057600080fd5b506004361061004c5760003560e01c80630418a0be146100515780636c861c571461006d578063747db44614610089578063bdab936b146100be575b600080fd5b61006b60048036038101906100669190610bd6565b6100f3565b005b61008760048036038101906100829190610ccc565b610237565b005b6100a3600480360381019061009e9190610dc9565b6104a4565b6040516100b596959493929190610e8d565b60405180910390f35b6100d860048036038101906100d39190610f03565b6106f5565b6040516100ea96959493929190610f5f565b60405180910390f35b60011515600f600088815260200190815260200160002060060160009054906101000a900460ff161515146101f3576001601060008973ffffffffffffffffffffffffffffffffffffffff1673ffffffffffffffffffffffffffffffffffffffff16815260200190815260200160002060006101000a81548160ff021916908315150217905550856000800181905550846000600101908161019591906111e8565b508360006002018190555082600060030190816101b291906111e8565b508160006004018190555080600060050190816101cf91906111e8565b506001600060060160006101000a81548160ff02191690831515021790555061022e565b6040517f08c379a00000000000000000000000000000000000000000000000000000000081526004016102259061132c565b60405180910390fd5b50505050505050565b60011515601060003373ffffffffffffffffffffffffffffffffffffffff1673ffffffffffffffffffffffffffffffffffffffff16815260200190815260200160002060009054906101000a900460ff161515146102ca576040517f08c379a00000000000000000000000000000000000000000000000000000000081526004016102c190611398565b60405180910390fd5b60011515600e6000888152602001908152602001600020856040516102ef91906113f4565b908152602001604051809103902060060160009054906101000a900460ff16151514610461578560076000018190555084600760010181905550836007600201908161033b91906111e8565b50826007600301908161034e91906111e8565b50816007600401908161036191906111e8565b50806007600501908161037491906111e8565b506001600760060160006101000a81548160ff0219169083151502179055506007600e6000888152602001908152602001600020856040516103b691906113f4565b90815260200160405180910390206000820154816000015560018201548160010155600282018160020190816103ec9190611421565b50600382018160030190816104019190611421565b50600482018160040190816104169190611421565b506005820181600501908161042b9190611421565b506006820160009054906101000a900460ff168160060160006101000a81548160ff02191690831515021790555090505061049c565b6040517f08c379a000000000000000000000000000000000000000000000000000000000815260040161049390611555565b60405180910390fd5b505050505050565b6000606060006060600060606000600f60008981526020019081526020016000206040518060e0016040529081600082015481526020016001820180546104ea9061100b565b80601f01602080910402602001604051908101604052809291908181526020018280546105169061100b565b80156105635780601f1061053857610100808354040283529160200191610563565b820191906000526020600020905b81548152906001019060200180831161054657829003601f168201915b50505050508152602001600282015481526020016003820180546105869061100b565b80601f01602080910402602001604051908101604052809291908181526020018280546105b29061100b565b80156105ff5780601f106105d4576101008083540402835291602001916105ff565b820191906000526020600020905b8154815290600101906020018083116105e257829003601f168201915b50505050508152602001600482015481526020016005820180546106229061100b565b80601f016020809104026020016040519081016040528092919081815260200182805461064e9061100b565b801561069b5780601f106106705761010080835404028352916020019161069b565b820191906000526020600020905b81548152906001019060200180831161067e57829003601f168201915b505050505081526020016006820160009054906101000a900460ff1615151515815250509050806000015181602001518260400151836060015184608001518560a001519650965096509650965096505091939550919395565b6000806060806060806000600e60008a81526020019081526020016000208860405161072191906113f4565b90815260200160405180910390206040518060e0016040529081600082015481526020016001820154815260200160028201805461075e9061100b565b80601f016020809104026020016040519081016040528092919081815260200182805461078a9061100b565b80156107d75780601f106107ac576101008083540402835291602001916107d7565b820191906000526020600020905b8154815290600101906020018083116107ba57829003601f168201915b505050505081526020016003820180546107f09061100b565b80601f016020809104026020016040519081016040528092919081815260200182805461081c9061100b565b80156108695780601f1061083e57610100808354040283529160200191610869565b820191906000526020600020905b81548152906001019060200180831161084c57829003601f168201915b505050505081526020016004820180546108829061100b565b80601f01602080910402602001604051908101604052809291908181526020018280546108ae9061100b565b80156108fb5780601f106108d0576101008083540402835291602001916108fb565b820191906000526020600020905b8154815290600101906020018083116108de57829003601f168201915b505050505081526020016005820180546109149061100b565b80601f01602080910402602001604051908101604052809291908181526020018280546109409061100b565b801561098d5780601f106109625761010080835404028352916020019161098d565b820191906000526020600020905b81548152906001019060200180831161097057829003601f168201915b505050505081526020016006820160009054906101000a900460ff1615151515815250509050806000015181602001518260400151836060015184608001518560a00151965096509650965096509650509295509295509295565b6000604051905090565b600080fd5b600080fd5b600073ffffffffffffffffffffffffffffffffffffffff82169050919050565b6000610a27826109fc565b9050919050565b610a3781610a1c565b8114610a4257600080fd5b50565b600081359050610a5481610a2e565b92915050565b6000819050919050565b610a6d81610a5a565b8114610a7857600080fd5b50565b600081359050610a8a81610a64565b92915050565b600080fd5b600080fd5b6000601f19601f8301169050919050565b7f4e487b7100000000000000000000000000000000000000000000000000000000600052604160045260246000fd5b610ae382610a9a565b810181811067ffffffffffffffff82111715610b0257610b01610aab565b5b80604052505050565b6000610b156109e8565b9050610b218282610ada565b919050565b600067ffffffffffffffff821115610b4157610b40610aab565b5b610b4a82610a9a565b9050602081019050919050565b82818337600083830152505050565b6000610b79610b7484610b26565b610b0b565b905082815260208101848484011115610b9557610b94610a95565b5b610ba0848285610b57565b509392505050565b600082601f830112610bbd57610bbc610a90565b5b8135610bcd848260208601610b66565b91505092915050565b600080600080600080600060e0888a031215610bf557610bf46109f2565b5b6000610c038a828b01610a45565b9750506020610c148a828b01610a7b565b965050604088013567ffffffffffffffff811115610c3557610c346109f7565b5b610c418a828b01610ba8565b9550506060610c528a828b01610a7b565b945050608088013567ffffffffffffffff811115610c7357610c726109f7565b5b610c7f8a828b01610ba8565b93505060a0610c908a828b01610a7b565b92505060c088013567ffffffffffffffff811115610cb157610cb06109f7565b5b610cbd8a828b01610ba8565b91505092959891949750929550565b60008060008060008060c08789031215610ce957610ce86109f2565b5b6000610cf789828a01610a7b565b9650506020610d0889828a01610a7b565b955050604087013567ffffffffffffffff811115610d2957610d286109f7565b5b610d3589828a01610ba8565b945050606087013567ffffffffffffffff811115610d5657610d556109f7565b5b610d6289828a01610ba8565b935050608087013567ffffffffffffffff811115610d8357610d826109f7565b5b610d8f89828a01610ba8565b92505060a087013567ffffffffffffffff811115610db057610daf6109f7565b5b610dbc89828a01610ba8565b9150509295509295509295565b600060208284031215610ddf57610dde6109f2565b5b6000610ded84828501610a7b565b91505092915050565b610dff81610a5a565b82525050565b600081519050919050565b600082825260208201905092915050565b60005b83811015610e3f578082015181840152602081019050610e24565b83811115610e4e576000848401525b50505050565b6000610e5f82610e05565b610e698185610e10565b9350610e79818560208601610e21565b610e8281610a9a565b840191505092915050565b600060c082019050610ea26000830189610df6565b8181036020830152610eb48188610e54565b9050610ec36040830187610df6565b8181036060830152610ed58186610e54565b9050610ee46080830185610df6565b81810360a0830152610ef68184610e54565b9050979650505050505050565b60008060408385031215610f1a57610f196109f2565b5b6000610f2885828601610a7b565b925050602083013567ffffffffffffffff811115610f4957610f486109f7565b5b610f5585828601610ba8565b9150509250929050565b600060c082019050610f746000830189610df6565b610f816020830188610df6565b8181036040830152610f938187610e54565b90508181036060830152610fa78186610e54565b90508181036080830152610fbb8185610e54565b905081810360a0830152610fcf8184610e54565b9050979650505050505050565b7f4e487b7100000000000000000000000000000000000000000000000000000000600052602260045260246000fd5b6000600282049050600182168061102357607f821691505b60208210810361103657611035610fdc565b5b50919050565b60008190508160005260206000209050919050565b60006020601f8301049050919050565b600082821b905092915050565b60006008830261109e7fffffffffffffffffffffffffffffffffffffffffffffffffffffffffffffffff82611061565b6110a88683611061565b95508019841693508086168417925050509392505050565b6000819050919050565b60006110e56110e06110db84610a5a565b6110c0565b610a5a565b9050919050565b6000819050919050565b6110ff836110ca565b61111361110b826110ec565b84845461106e565b825550505050565b600090565b61112861111b565b6111338184846110f6565b505050565b5b818110156111575761114c600082611120565b600181019050611139565b5050565b601f82111561119c5761116d8161103c565b61117684611051565b81016020851015611185578190505b61119961119185611051565b830182611138565b50505b505050565b600082821c905092915050565b60006111bf600019846008026111a1565b1980831691505092915050565b60006111d883836111ae565b9150826002028217905092915050565b6111f182610e05565b67ffffffffffffffff81111561120a57611209610aab565b5b611214825461100b565b61121f82828561115b565b600060209050601f8311600181146112525760008415611240578287015190505b61124a85826111cc565b8655506112b2565b601f1984166112608661103c565b60005b8281101561128857848901518255600182019150602085019450602081019050611263565b868310156112a557848901516112a1601f8916826111ae565b8355505b6001600288020188555050505b505050505050565b7f4e757273652077697468207468617420494420616c726561647920657869737460008201527f732e000000000000000000000000000000000000000000000000000000000000602082015250565b6000611316602283610e10565b9150611321826112ba565b604082019050919050565b6000602082019050818103600083015261134581611309565b9050919050565b7f4163636573732044656e6965642c204e6f742061204e75727365000000000000600082015250565b6000611382601a83610e10565b915061138d8261134c565b602082019050919050565b600060208201905081810360008301526113b181611375565b9050919050565b600081905092915050565b60006113ce82610e05565b6113d881856113b8565b93506113e8818560208601610e21565b80840191505092915050565b600061140082846113c3565b915081905092915050565b60008154905061141a8161100b565b9050919050565b81810361142f575050611507565b6114388261140b565b67ffffffffffffffff81111561145157611450610aab565b5b61145b825461100b565b61146682828561115b565b6000601f8311600181146114955760008415611483578287015490505b61148d85826111cc565b865550611500565b601f1984166114a38761103c565b96506114ae8661103c565b60005b828110156114d6578489015482556001820191506001850194506020810190506114b1565b868310156114f357848901546114ef601f8916826111ae565b8355505b6001600288020188555050505b5050505050505b565b7f50617469656e74205265636f726420616c7265616479206578697374732e0000600082015250565b600061153f601e83610e10565b915061154a82611509565b602082019050919050565b6000602082019050818103600083015261156e81611532565b905091905056fea2646970667358221220483cba958d4b9ebca74edd38ea8bbb9c5f5e66630c1beaa5c161f951487ecadd64736f6c634300080f0033",
  "immutableReferences": {},
  "source": "// SPDX-License-Identifier: MIT\r\npragma solidity >=0.4.22 <0.9.0;\r\n\r\ncontract Nurse{\r\n\r\n       struct nurse_details{\r\n        uint nurse_id;\r\n        string name;\r\n        uint age;\r\n        string gender;\r\n        uint phone_no;\r\n        string join_date;\r\n        bool exist;\r\n    }\r\n    nurse_details N;\r\n\r\n    struct patient_status{\r\n        uint patient_id;\r\n        uint nurse_id;\r\n        string date;\r\n        string patient_symptoms;\r\n        string status;\r\n        string note;\r\n        bool exist;\r\n    }\r\n    patient_status x;\r\n\r\n    mapping(uint => mapping(string=>patient_status)) PatientStats;\r\n    mapping(uint => nurse_details) Nurses;\r\n\r\n    //Access Modifier\r\n    mapping(address=>bool) reg_nurse;\r\n    function addNurse(address _address, uint _id, string memory _name, uint _age, string memory _gender, uint _phone_no, string memory _date)external {\r\n        if(Nurses[_id].exist != true){\r\n            reg_nurse[_address] = true;\r\n            N.nurse_id = _id;\r\n            N.name = _name;\r\n            N.age = _age;\r\n            N.gender = _gender;\r\n            N.phone_no = _phone_no;\r\n            N.join_date = _date;\r\n            N.exist = true;\r\n        }else{revert(\"Nurse with that ID already exists.\");}\r\n    }\r\n    // constructor() {reg_nurse[0x5B38Da6a701c568545dCfcB03FcB875f56beddC4] = true;} //For Debugging\r\n    modifier isNurse(){\r\n        require(reg_nurse[msg.sender]==true,\"Access Denied, Not a Nurse\");\r\n        _;\r\n    }\r\n    //set patient_status\r\n    function patient_Status(uint _patient_id, uint _nurse_id, string memory _date, string memory _patient_symptoms, string memory _status, string memory _note) public isNurse{\r\n        if(PatientStats[_patient_id][_date].exist != true){\r\n        x.patient_id= _patient_id;\r\n        x.nurse_id= _nurse_id;\r\n        x.date = _date;\r\n        x.patient_symptoms = _patient_symptoms;\r\n        x.status=_status;\r\n        x.note = _note;\r\n        x.exist = true;\r\n        PatientStats[_patient_id][_date] = x;\r\n        }else{revert(\"Patient Record already exists.\");}\r\n    }\r\n    //get patient_status\r\n    function getPatient_status(uint _patient_id, string memory _date)public view returns(uint,uint,string memory,string memory,string memory,string memory){\r\n        patient_status memory pt= PatientStats[_patient_id][_date];\r\n        return(pt.patient_id,pt.nurse_id,pt.date,pt.patient_symptoms,pt.status,pt.note);\r\n    }\r\n\r\n    //get nurse info\r\n    function getNurseInfo(uint _id)external view returns(uint, string memory, uint, string memory, uint, string memory){\r\n        nurse_details memory nd = Nurses[_id];\r\n        return(nd.nurse_id, nd.name, nd.age, nd.gender, nd.phone_no, nd.join_date);\r\n\r\n    }\r\n}\r\n",
  "sourcePath": "D:\\Storage\\Extras\\College_Material\\Project\\home-mgmt\\contracts\\Nurse.sol",
  "compiler": {
    "name": "solc",
    "version": "0.8.15+commit.e14f2714.Emscripten.clang"
  },
  "schemaVersion": "3.4.8",
  "updatedAt": "2022-08-19T21:05:35.891Z",
  "devdoc": {
    "kind": "dev",
    "methods": {},
    "version": 1
  },
  "userdoc": {
    "kind": "user",
    "methods": {},
    "version": 1
  }
}