{
  "contractName": "Pharmacy",
  "abi": [
    {
      "inputs": [
        {
          "internalType": "address",
          "name": "_address",
          "type": "address"
        }
      ],
      "name": "setPharma",
      "outputs": [],
      "stateMutability": "nonpayable",
      "type": "function"
    },
    {
      "inputs": [
        {
          "internalType": "string",
          "name": "_name",
          "type": "string"
        },
        {
          "internalType": "uint256",
          "name": "_pat_id",
          "type": "uint256"
        },
        {
          "internalType": "uint256",
          "name": "_doc_id",
          "type": "uint256"
        },
        {
          "internalType": "string",
          "name": "_date",
          "type": "string"
        }
      ],
      "name": "patient_details",
      "outputs": [],
      "stateMutability": "nonpayable",
      "type": "function"
    },
    {
      "inputs": [
        {
          "internalType": "uint256",
          "name": "_pat_id",
          "type": "uint256"
        },
        {
          "internalType": "string",
          "name": "_med",
          "type": "string"
        },
        {
          "internalType": "uint256",
          "name": "_price",
          "type": "uint256"
        },
        {
          "internalType": "string",
          "name": "_date",
          "type": "string"
        }
      ],
      "name": "add_meds",
      "outputs": [],
      "stateMutability": "nonpayable",
      "type": "function"
    },
    {
      "inputs": [
        {
          "internalType": "uint256",
          "name": "_pat_id",
          "type": "uint256"
        },
        {
          "internalType": "string",
          "name": "_date",
          "type": "string"
        }
      ],
      "name": "get_meds",
      "outputs": [
        {
          "internalType": "string",
          "name": "",
          "type": "string"
        },
        {
          "internalType": "uint256[]",
          "name": "",
          "type": "uint256[]"
        },
        {
          "internalType": "string[]",
          "name": "",
          "type": "string[]"
        }
      ],
      "stateMutability": "view",
      "type": "function"
    },
    {
      "inputs": [
        {
          "internalType": "address",
          "name": "_Contract",
          "type": "address"
        },
        {
          "internalType": "uint256",
          "name": "_pat_id",
          "type": "uint256"
        },
        {
          "internalType": "string",
          "name": "_date",
          "type": "string"
        },
        {
          "internalType": "uint256",
          "name": "_prescription_id",
          "type": "uint256"
        }
      ],
      "name": "getPrescription",
      "outputs": [
        {
          "internalType": "uint256",
          "name": "",
          "type": "uint256"
        },
        {
          "internalType": "uint256",
          "name": "",
          "type": "uint256"
        },
        {
          "internalType": "string",
          "name": "",
          "type": "string"
        },
        {
          "internalType": "string",
          "name": "",
          "type": "string"
        },
        {
          "internalType": "string[]",
          "name": "",
          "type": "string[]"
        },
        {
          "internalType": "uint256",
          "name": "",
          "type": "uint256"
        }
      ],
      "stateMutability": "view",
      "type": "function"
    }
  ],
  "bytecode": "0x608060405234801561001057600080fd5b50611aae806100206000396000f3fe608060405234801561001057600080fd5b50600436106100575760003560e01c806328633fa71461005c5780637497c47b146100785780639211134c146100aa57806397f02b71146100df5780639c411c02146100fb575b600080fd5b61007660048036038101906100719190610c44565b610117565b005b610092600480360381019061008d9190610ce3565b61035f565b6040516100a193929190610f91565b60405180910390f35b6100c460048036038101906100bf919061103b565b6106c9565b6040516100d6969594939291906110cd565b60405180910390f35b6100f960048036038101906100f49190611143565b610774565b005b610115600480360381019061011091906111e2565b610929565b005b60011515600860003373ffffffffffffffffffffffffffffffffffffffff1673ffffffffffffffffffffffffffffffffffffffff16815260200190815260200160002060009054906101000a900460ff161515146101aa576040517f08c379a00000000000000000000000000000000000000000000000000000000081526004016101a19061125b565b60405180910390fd5b6001151560076000858152602001908152602001600020826040516101cf91906112b7565b908152602001604051809103902060060160009054906101000a900460ff1615151461031e578360008001908161020691906114da565b508260006001018190555081600060020181905550806000600301908161022d91906114da565b506001600060060160006101000a81548160ff0219169083151502179055506000600760008581526020019081526020016000208260405161026f91906112b7565b90815260200160405180910390206000820181600001908161029191906115c2565b506001820154816001015560028201548160020155600382018160030190816102ba91906115c2565b5060048201816004019080546102d1929190610984565b5060058201816005019080546102e89291906109e1565b506006820160009054906101000a900460ff168160060160006101000a81548160ff021916908315150217905550905050610359565b6040517f08c379a0000000000000000000000000000000000000000000000000000000008152600401610350906116f6565b60405180910390fd5b50505050565b606080606060011515600760008781526020019081526020016000208560405161038991906112b7565b908152602001604051809103902060060160009054906101000a900460ff161515146103ea576040517f08c379a00000000000000000000000000000000000000000000000000000000081526004016103e190611762565b60405180910390fd5b6000600760008781526020019081526020016000208560405161040d91906112b7565b90815260200160405180910390206040518060e0016040529081600082018054610436906112fd565b80601f0160208091040260200160405190810160405280929190818152602001828054610462906112fd565b80156104af5780601f10610484576101008083540402835291602001916104af565b820191906000526020600020905b81548152906001019060200180831161049257829003601f168201915b5050505050815260200160018201548152602001600282015481526020016003820180546104dc906112fd565b80601f0160208091040260200160405190810160405280929190818152602001828054610508906112fd565b80156105555780601f1061052a57610100808354040283529160200191610555565b820191906000526020600020905b81548152906001019060200180831161053857829003601f168201915b5050505050815260200160048201805480602002602001604051908101604052809291908181526020016000905b8282101561062f5783829060005260206000200180546105a2906112fd565b80601f01602080910402602001604051908101604052809291908181526020018280546105ce906112fd565b801561061b5780601f106105f05761010080835404028352916020019161061b565b820191906000526020600020905b8154815290600101906020018083116105fe57829003601f168201915b505050505081526020019060010190610583565b5050505081526020016005820180548060200260200160405190810160405280929190818152602001828054801561068657602002820191906000526020600020905b815481526020019060010190808311610672575b505050505081526020016006820160009054906101000a900460ff161515151581525050905080600001518160a001518260800151935093509350509250925092565b60008060608060606000808a90508073ffffffffffffffffffffffffffffffffffffffff16636d22fbe28b8b8b6040518463ffffffff1660e01b815260040161071493929190611782565b600060405180830381865afa158015610731573d6000803e3d6000fd5b505050506040513d6000823e3d601f19601f8201168201806040525081019061075a919061192b565b965096509650965096509650509499939850945094509450565b60011515600860003373ffffffffffffffffffffffffffffffffffffffff1673ffffffffffffffffffffffffffffffffffffffff16815260200190815260200160002060009054906101000a900460ff16151514610807576040517f08c379a00000000000000000000000000000000000000000000000000000000081526004016107fe9061125b565b60405180910390fd5b60011515600760008681526020019081526020016000208260405161082c91906112b7565b908152602001604051809103902060060160009054906101000a900460ff1615151461088d576040517f08c379a000000000000000000000000000000000000000000000000000000000815260040161088490611a58565b60405180910390fd5b600060076000868152602001908152602001600020826040516108b091906112b7565b9081526020016040518091039020905080600401849080600181540180825580915050600190039060005260206000200160009091909190915090816108f691906114da565b50806005018390806001815401808255809150506001900390600052602060002001600090919091909150555050505050565b6001600860008373ffffffffffffffffffffffffffffffffffffffff1673ffffffffffffffffffffffffffffffffffffffff16815260200190815260200160002060006101000a81548160ff02191690831515021790555050565b8280548282559060005260206000209081019282156109d05760005260206000209182015b828111156109cf57828290816109bf91906115c2565b50916001019190600101906109a9565b5b5090506109dd9190610a33565b5090565b828054828255906000526020600020908101928215610a225760005260206000209182015b82811115610a21578254825591600101919060010190610a06565b5b509050610a2f9190610a57565b5090565b5b80821115610a535760008181610a4a9190610a74565b50600101610a34565b5090565b5b80821115610a70576000816000905550600101610a58565b5090565b508054610a80906112fd565b6000825580601f10610a925750610ab1565b601f016020900490600052602060002090810190610ab09190610a57565b5b50565b6000604051905090565b600080fd5b600080fd5b600080fd5b600080fd5b6000601f19601f8301169050919050565b7f4e487b7100000000000000000000000000000000000000000000000000000000600052604160045260246000fd5b610b1b82610ad2565b810181811067ffffffffffffffff82111715610b3a57610b39610ae3565b5b80604052505050565b6000610b4d610ab4565b9050610b598282610b12565b919050565b600067ffffffffffffffff821115610b7957610b78610ae3565b5b610b8282610ad2565b9050602081019050919050565b82818337600083830152505050565b6000610bb1610bac84610b5e565b610b43565b905082815260208101848484011115610bcd57610bcc610acd565b5b610bd8848285610b8f565b509392505050565b600082601f830112610bf557610bf4610ac8565b5b8135610c05848260208601610b9e565b91505092915050565b6000819050919050565b610c2181610c0e565b8114610c2c57600080fd5b50565b600081359050610c3e81610c18565b92915050565b60008060008060808587031215610c5e57610c5d610abe565b5b600085013567ffffffffffffffff811115610c7c57610c7b610ac3565b5b610c8887828801610be0565b9450506020610c9987828801610c2f565b9350506040610caa87828801610c2f565b925050606085013567ffffffffffffffff811115610ccb57610cca610ac3565b5b610cd787828801610be0565b91505092959194509250565b60008060408385031215610cfa57610cf9610abe565b5b6000610d0885828601610c2f565b925050602083013567ffffffffffffffff811115610d2957610d28610ac3565b5b610d3585828601610be0565b9150509250929050565b600081519050919050565b600082825260208201905092915050565b60005b83811015610d79578082015181840152602081019050610d5e565b83811115610d88576000848401525b50505050565b6000610d9982610d3f565b610da38185610d4a565b9350610db3818560208601610d5b565b610dbc81610ad2565b840191505092915050565b600081519050919050565b600082825260208201905092915050565b6000819050602082019050919050565b610dfc81610c0e565b82525050565b6000610e0e8383610df3565b60208301905092915050565b6000602082019050919050565b6000610e3282610dc7565b610e3c8185610dd2565b9350610e4783610de3565b8060005b83811015610e78578151610e5f8882610e02565b9750610e6a83610e1a565b925050600181019050610e4b565b5085935050505092915050565b600081519050919050565b600082825260208201905092915050565b6000819050602082019050919050565b600082825260208201905092915050565b6000610ecd82610d3f565b610ed78185610eb1565b9350610ee7818560208601610d5b565b610ef081610ad2565b840191505092915050565b6000610f078383610ec2565b905092915050565b6000602082019050919050565b6000610f2782610e85565b610f318185610e90565b935083602082028501610f4385610ea1565b8060005b85811015610f7f5784840389528151610f608582610efb565b9450610f6b83610f0f565b925060208a01995050600181019050610f47565b50829750879550505050505092915050565b60006060820190508181036000830152610fab8186610d8e565b90508181036020830152610fbf8185610e27565b90508181036040830152610fd38184610f1c565b9050949350505050565b600073ffffffffffffffffffffffffffffffffffffffff82169050919050565b600061100882610fdd565b9050919050565b61101881610ffd565b811461102357600080fd5b50565b6000813590506110358161100f565b92915050565b6000806000806080858703121561105557611054610abe565b5b600061106387828801611026565b945050602061107487828801610c2f565b935050604085013567ffffffffffffffff81111561109557611094610ac3565b5b6110a187828801610be0565b92505060606110b287828801610c2f565b91505092959194509250565b6110c781610c0e565b82525050565b600060c0820190506110e260008301896110be565b6110ef60208301886110be565b81810360408301526111018187610d8e565b905081810360608301526111158186610d8e565b905081810360808301526111298185610f1c565b905061113860a08301846110be565b979650505050505050565b6000806000806080858703121561115d5761115c610abe565b5b600061116b87828801610c2f565b945050602085013567ffffffffffffffff81111561118c5761118b610ac3565b5b61119887828801610be0565b93505060406111a987828801610c2f565b925050606085013567ffffffffffffffff8111156111ca576111c9610ac3565b5b6111d687828801610be0565b91505092959194509250565b6000602082840312156111f8576111f7610abe565b5b600061120684828501611026565b91505092915050565b7f4163636573732044656e6965642c204e6f74204120506861726d6163792e0000600082015250565b6000611245601e83610d4a565b91506112508261120f565b602082019050919050565b6000602082019050818103600083015261127481611238565b9050919050565b600081905092915050565b600061129182610d3f565b61129b818561127b565b93506112ab818560208601610d5b565b80840191505092915050565b60006112c38284611286565b915081905092915050565b7f4e487b7100000000000000000000000000000000000000000000000000000000600052602260045260246000fd5b6000600282049050600182168061131557607f821691505b602082108103611328576113276112ce565b5b50919050565b60008190508160005260206000209050919050565b60006020601f8301049050919050565b600082821b905092915050565b6000600883026113907fffffffffffffffffffffffffffffffffffffffffffffffffffffffffffffffff82611353565b61139a8683611353565b95508019841693508086168417925050509392505050565b6000819050919050565b60006113d76113d26113cd84610c0e565b6113b2565b610c0e565b9050919050565b6000819050919050565b6113f1836113bc565b6114056113fd826113de565b848454611360565b825550505050565b600090565b61141a61140d565b6114258184846113e8565b505050565b5b818110156114495761143e600082611412565b60018101905061142b565b5050565b601f82111561148e5761145f8161132e565b61146884611343565b81016020851015611477578190505b61148b61148385611343565b83018261142a565b50505b505050565b600082821c905092915050565b60006114b160001984600802611493565b1980831691505092915050565b60006114ca83836114a0565b9150826002028217905092915050565b6114e382610d3f565b67ffffffffffffffff8111156114fc576114fb610ae3565b5b61150682546112fd565b61151182828561144d565b600060209050601f8311600181146115445760008415611532578287015190505b61153c85826114be565b8655506115a4565b601f1984166115528661132e565b60005b8281101561157a57848901518255600182019150602085019450602081019050611555565b868310156115975784890151611593601f8916826114a0565b8355505b6001600288020188555050505b505050505050565b6000815490506115bb816112fd565b9050919050565b8181036115d05750506116a8565b6115d9826115ac565b67ffffffffffffffff8111156115f2576115f1610ae3565b5b6115fc82546112fd565b61160782828561144d565b6000601f8311600181146116365760008415611624578287015490505b61162e85826114be565b8655506116a1565b601f1984166116448761132e565b965061164f8661132e565b60005b8281101561167757848901548255600182019150600185019450602081019050611652565b868310156116945784890154611690601f8916826114a0565b8355505b6001600288020188555050505b5050505050505b565b7f50617469656e7420494420616c7265616479206578697374732e000000000000600082015250565b60006116e0601a83610d4a565b91506116eb826116aa565b602082019050919050565b6000602082019050818103600083015261170f816116d3565b9050919050565b7f4e6f204461746120466f756e642e000000000000000000000000000000000000600082015250565b600061174c600e83610d4a565b915061175782611716565b602082019050919050565b6000602082019050818103600083015261177b8161173f565b9050919050565b600060608201905061179760008301866110be565b81810360208301526117a98185610d8e565b90506117b860408301846110be565b949350505050565b6000815190506117cf81610c18565b92915050565b60006117e86117e384610b5e565b610b43565b90508281526020810184848401111561180457611803610acd565b5b61180f848285610d5b565b509392505050565b600082601f83011261182c5761182b610ac8565b5b815161183c8482602086016117d5565b91505092915050565b600067ffffffffffffffff8211156118605761185f610ae3565b5b602082029050602081019050919050565b600080fd5b600061188961188484611845565b610b43565b905080838252602082019050602084028301858111156118ac576118ab611871565b5b835b818110156118f357805167ffffffffffffffff8111156118d1576118d0610ac8565b5b8086016118de8982611817565b855260208501945050506020810190506118ae565b5050509392505050565b600082601f83011261191257611911610ac8565b5b8151611922848260208601611876565b91505092915050565b60008060008060008060c0878903121561194857611947610abe565b5b600061195689828a016117c0565b965050602061196789828a016117c0565b955050604087015167ffffffffffffffff81111561198857611987610ac3565b5b61199489828a01611817565b945050606087015167ffffffffffffffff8111156119b5576119b4610ac3565b5b6119c189828a01611817565b935050608087015167ffffffffffffffff8111156119e2576119e1610ac3565b5b6119ee89828a016118fd565b92505060a06119ff89828a016117c0565b9150509295509295509295565b7f50617469656e74204e6f7420466f756e642e0000000000000000000000000000600082015250565b6000611a42601283610d4a565b9150611a4d82611a0c565b602082019050919050565b60006020820190508181036000830152611a7181611a35565b905091905056fea26469706673582212206bff9c94afa070d5665776bee8083c60ba4d9cdb02ad9dd519e06783a349a2c464736f6c634300080f0033",
  "immutableReferences": {},
  "source": "// SPDX-License-Identifier: MIT\r\npragma solidity >=0.4.22 <0.9.0;\r\nimport './Doctor.sol';\r\n\r\ncontract Pharmacy{\r\n    \r\n    // Patient Object\r\n    struct Patient_Meds{\r\n        string name; // for testing\r\n        uint patient_id;\r\n        uint doc_id;\r\n        string date;\r\n        string[] medicines; //= new string[](0);\r\n        uint[] prices; //= new uint[](0);\r\n        bool exist;\r\n    }\r\n    Patient_Meds x;\r\n    mapping(uint=>mapping(string=>Patient_Meds)) Medicines;\r\n    // Setting Up Pharmacy Addresses;\r\n    mapping(address => bool) mapPharma;\r\n   // constructor(){mapPharma[0x5B38Da6a701c568545dCfcB03FcB875f56beddC4] = true;} // For Debugging\r\n\r\n    function setPharma(address _address) external{\r\n        mapPharma[_address] = true;\r\n    }\r\n    // Access Modifiers\r\n    modifier isPharma(){\r\n        require(mapPharma[msg.sender]==true,\"Access Denied, Not A Pharmacy.\");\r\n        _;\r\n    }\r\n \r\n    function patient_details(string memory _name, uint _pat_id, uint _doc_id,string memory _date) public isPharma{\r\n          if(Medicines[_pat_id][_date].exist != true){\r\n                x.name = _name;\r\n                x.patient_id = _pat_id;\r\n                x.doc_id = _doc_id;\r\n                x.date = _date;\r\n                x.exist = true;\r\n                Medicines[_pat_id][_date] = x;\r\n        }else{revert(\"Patient ID already exists.\");}\r\n   }\r\n    function add_meds(uint _pat_id, string memory _med, uint _price, string memory _date) public isPharma{\r\n        require(Medicines[_pat_id][_date].exist == true, \"Patient Not Found.\");\r\n        Patient_Meds storage pt = Medicines[_pat_id][_date];\r\n        pt.medicines.push(_med);\r\n        pt.prices.push(_price);\r\n    }\r\n    function get_meds(uint _pat_id,string memory _date) public view returns(string memory, uint[] memory,string[] memory){\r\n        require(Medicines[_pat_id][_date].exist == true, \"No Data Found.\");\r\n        Patient_Meds memory pt = Medicines[_pat_id][_date];\r\n        return (pt.name,pt.prices, pt.medicines);\r\n    }\r\n    \r\n    // Get Patient Prescription\r\n    function getPrescription(address _Contract,uint _pat_id,string memory _date, uint _prescription_id)public view returns(uint,uint,string memory, string memory,string[] memory,uint){\r\n        Doctor D = Doctor(_Contract);\r\n        return(D.getPrescription(_pat_id,_date,_prescription_id));\r\n    }\r\n}",
  "sourcePath": "D:\\Storage\\Extras\\College_Material\\Project\\home-mgmt\\contracts\\Pharmacy.sol",
  "compiler": {
    "name": "solc",
    "version": "0.8.15+commit.e14f2714.Emscripten.clang"
  },
  "schemaVersion": "3.4.8",
  "updatedAt": "2022-08-19T21:05:35.946Z",
  "devdoc": {
    "kind": "dev",
    "methods": {},
    "version": 1
  },
  "userdoc": {
    "kind": "user",
    "methods": {},
    "version": 1
  }
}