{
  "contractName": "Receptionist",
  "abi": [
    {
      "inputs": [],
      "stateMutability": "nonpayable",
      "type": "constructor"
    },
    {
      "inputs": [
        {
          "internalType": "address",
          "name": "_Contract",
          "type": "address"
        },
        {
          "internalType": "address",
          "name": "_DoctorContract",
          "type": "address"
        },
        {
          "internalType": "address",
          "name": "_AttendantContract",
          "type": "address"
        },
        {
          "internalType": "address",
          "name": "pat_address",
          "type": "address"
        },
        {
          "internalType": "uint256",
          "name": "_pat_id",
          "type": "uint256"
        },
        {
          "internalType": "string",
          "name": "Name",
          "type": "string"
        },
        {
          "internalType": "uint256",
          "name": "Age",
          "type": "uint256"
        },
        {
          "internalType": "string",
          "name": "Gender",
          "type": "string"
        },
        {
          "internalType": "uint256",
          "name": "Phone_no",
          "type": "uint256"
        },
        {
          "internalType": "string",
          "name": "Date",
          "type": "string"
        }
      ],
      "name": "add_patient",
      "outputs": [],
      "stateMutability": "nonpayable",
      "type": "function"
    },
    {
      "inputs": [
        {
          "internalType": "address",
          "name": "_Contract",
          "type": "address"
        },
        {
          "internalType": "address",
          "name": "_adss",
          "type": "address"
        },
        {
          "internalType": "uint256",
          "name": "_id",
          "type": "uint256"
        },
        {
          "internalType": "string",
          "name": "_name",
          "type": "string"
        },
        {
          "internalType": "uint256",
          "name": "_age",
          "type": "uint256"
        },
        {
          "internalType": "string",
          "name": "_gender",
          "type": "string"
        },
        {
          "internalType": "uint256",
          "name": "_phone_no",
          "type": "uint256"
        }
      ],
      "name": "add_attendant",
      "outputs": [],
      "stateMutability": "nonpayable",
      "type": "function"
    },
    {
      "inputs": [
        {
          "internalType": "address",
          "name": "_Contract",
          "type": "address"
        },
        {
          "internalType": "address",
          "name": "_address",
          "type": "address"
        },
        {
          "internalType": "uint256",
          "name": "_pat_id",
          "type": "uint256"
        },
        {
          "internalType": "uint256",
          "name": "_at_id",
          "type": "uint256"
        },
        {
          "internalType": "string",
          "name": "_name",
          "type": "string"
        },
        {
          "internalType": "uint256",
          "name": "_age",
          "type": "uint256"
        },
        {
          "internalType": "string",
          "name": "_gender",
          "type": "string"
        },
        {
          "internalType": "uint256",
          "name": "_phone_no",
          "type": "uint256"
        }
      ],
      "name": "assign_attendant",
      "outputs": [],
      "stateMutability": "nonpayable",
      "type": "function"
    },
    {
      "inputs": [
        {
          "internalType": "address",
          "name": "_Contract",
          "type": "address"
        },
        {
          "internalType": "address",
          "name": "_address",
          "type": "address"
        },
        {
          "internalType": "uint256",
          "name": "_id",
          "type": "uint256"
        },
        {
          "internalType": "string",
          "name": "_name",
          "type": "string"
        },
        {
          "internalType": "uint256",
          "name": "_age",
          "type": "uint256"
        },
        {
          "internalType": "string",
          "name": "_gender",
          "type": "string"
        },
        {
          "internalType": "uint256",
          "name": "_phone_no",
          "type": "uint256"
        },
        {
          "internalType": "string",
          "name": "_date",
          "type": "string"
        }
      ],
      "name": "add_doctor",
      "outputs": [],
      "stateMutability": "nonpayable",
      "type": "function"
    },
    {
      "inputs": [
        {
          "internalType": "address",
          "name": "_Contract",
          "type": "address"
        },
        {
          "internalType": "address",
          "name": "_address",
          "type": "address"
        }
      ],
      "name": "add_pharma",
      "outputs": [],
      "stateMutability": "nonpayable",
      "type": "function"
    },
    {
      "inputs": [
        {
          "internalType": "address",
          "name": "_Contract",
          "type": "address"
        },
        {
          "internalType": "address",
          "name": "_address",
          "type": "address"
        }
      ],
      "name": "add_lab",
      "outputs": [],
      "stateMutability": "nonpayable",
      "type": "function"
    },
    {
      "inputs": [
        {
          "internalType": "address",
          "name": "_Contract",
          "type": "address"
        },
        {
          "internalType": "address",
          "name": "_address",
          "type": "address"
        },
        {
          "internalType": "uint256",
          "name": "_id",
          "type": "uint256"
        },
        {
          "internalType": "string",
          "name": "_name",
          "type": "string"
        },
        {
          "internalType": "uint256",
          "name": "_age",
          "type": "uint256"
        },
        {
          "internalType": "string",
          "name": "_gender",
          "type": "string"
        },
        {
          "internalType": "uint256",
          "name": "_phone_no",
          "type": "uint256"
        },
        {
          "internalType": "string",
          "name": "_date",
          "type": "string"
        }
      ],
      "name": "add_nurse",
      "outputs": [],
      "stateMutability": "nonpayable",
      "type": "function"
    }
  ],
  "bytecode": "0x608060405234801561001057600080fd5b5073d5f766e8f18e87f635d5c125dba0949078f71dc36000806101000a81548173ffffffffffffffffffffffffffffffffffffffff021916908373ffffffffffffffffffffffffffffffffffffffff160217905550611260806100746000396000f3fe608060405234801561001057600080fd5b506004361061007d5760003560e01c8063b3417dc21161005b578063b3417dc2146100d6578063bbc471d9146100f2578063cdbe98a71461010e578063e1a0088f1461012a5761007d565b8063040f2108146100825780633a78599b1461009e57806388863a4e146100ba575b600080fd5b61009c60048036038101906100979190610aa6565b610146565b005b6100b860048036038101906100b39190610b80565b610258565b005b6100d460048036038101906100cf9190610c8a565b61036d565b005b6100f060048036038101906100eb9190610cca565b610470565b005b61010c60048036038101906101079190610c8a565b610585565b005b61012860048036038101906101239190610db8565b610688565b005b610144600480360381019061013f9190610b80565b6107a3565b005b60008054906101000a900473ffffffffffffffffffffffffffffffffffffffff1673ffffffffffffffffffffffffffffffffffffffff163373ffffffffffffffffffffffffffffffffffffffff16146101d4576040517f08c379a00000000000000000000000000000000000000000000000000000000081526004016101cb90610f48565b60405180910390fd5b60008790508073ffffffffffffffffffffffffffffffffffffffff1663255358e18888888888886040518763ffffffff1660e01b815260040161021c96959493929190610ffd565b600060405180830381600087803b15801561023657600080fd5b505af115801561024a573d6000803e3d6000fd5b505050505050505050505050565b60008054906101000a900473ffffffffffffffffffffffffffffffffffffffff1673ffffffffffffffffffffffffffffffffffffffff163373ffffffffffffffffffffffffffffffffffffffff16146102e6576040517f08c379a00000000000000000000000000000000000000000000000000000000081526004016102dd90610f48565b60405180910390fd5b60008890508073ffffffffffffffffffffffffffffffffffffffff16630418a0be898989898989896040518863ffffffff1660e01b8152600401610330979695949392919061106c565b600060405180830381600087803b15801561034a57600080fd5b505af115801561035e573d6000803e3d6000fd5b50505050505050505050505050565b60008054906101000a900473ffffffffffffffffffffffffffffffffffffffff1673ffffffffffffffffffffffffffffffffffffffff163373ffffffffffffffffffffffffffffffffffffffff16146103fb576040517f08c379a00000000000000000000000000000000000000000000000000000000081526004016103f290610f48565b60405180910390fd5b60008290508073ffffffffffffffffffffffffffffffffffffffff16633aa78723836040518263ffffffff1660e01b815260040161043991906110f0565b600060405180830381600087803b15801561045357600080fd5b505af1158015610467573d6000803e3d6000fd5b50505050505050565b60008054906101000a900473ffffffffffffffffffffffffffffffffffffffff1673ffffffffffffffffffffffffffffffffffffffff163373ffffffffffffffffffffffffffffffffffffffff16146104fe576040517f08c379a00000000000000000000000000000000000000000000000000000000081526004016104f590610f48565b60405180910390fd5b60008890508073ffffffffffffffffffffffffffffffffffffffff166303cf3e5e898989898989896040518863ffffffff1660e01b8152600401610548979695949392919061110b565b600060405180830381600087803b15801561056257600080fd5b505af1158015610576573d6000803e3d6000fd5b50505050505050505050505050565b60008054906101000a900473ffffffffffffffffffffffffffffffffffffffff1673ffffffffffffffffffffffffffffffffffffffff163373ffffffffffffffffffffffffffffffffffffffff1614610613576040517f08c379a000000000000000000000000000000000000000000000000000000000815260040161060a90610f48565b60405180910390fd5b60008290508073ffffffffffffffffffffffffffffffffffffffff16639c411c02836040518263ffffffff1660e01b815260040161065191906110f0565b600060405180830381600087803b15801561066b57600080fd5b505af115801561067f573d6000803e3d6000fd5b50505050505050565b60008054906101000a900473ffffffffffffffffffffffffffffffffffffffff1673ffffffffffffffffffffffffffffffffffffffff163373ffffffffffffffffffffffffffffffffffffffff1614610716576040517f08c379a000000000000000000000000000000000000000000000000000000000815260040161070d90610f48565b60405180910390fd5b60008a90508073ffffffffffffffffffffffffffffffffffffffff1663d92059788b8b8b8b8b8b8b8b8b6040518a63ffffffff1660e01b815260040161076499989796959493929190611188565b600060405180830381600087803b15801561077e57600080fd5b505af1158015610792573d6000803e3d6000fd5b505050505050505050505050505050565b60008054906101000a900473ffffffffffffffffffffffffffffffffffffffff1673ffffffffffffffffffffffffffffffffffffffff163373ffffffffffffffffffffffffffffffffffffffff1614610831576040517f08c379a000000000000000000000000000000000000000000000000000000000815260040161082890610f48565b60405180910390fd5b60008890508073ffffffffffffffffffffffffffffffffffffffff1663105c9c00898989898989896040518863ffffffff1660e01b815260040161087b979695949392919061106c565b600060405180830381600087803b15801561089557600080fd5b505af11580156108a9573d6000803e3d6000fd5b50505050505050505050505050565b6000604051905090565b600080fd5b600080fd5b600073ffffffffffffffffffffffffffffffffffffffff82169050919050565b60006108f7826108cc565b9050919050565b610907816108ec565b811461091257600080fd5b50565b600081359050610924816108fe565b92915050565b6000819050919050565b61093d8161092a565b811461094857600080fd5b50565b60008135905061095a81610934565b92915050565b600080fd5b600080fd5b6000601f19601f8301169050919050565b7f4e487b7100000000000000000000000000000000000000000000000000000000600052604160045260246000fd5b6109b38261096a565b810181811067ffffffffffffffff821117156109d2576109d161097b565b5b80604052505050565b60006109e56108b8565b90506109f182826109aa565b919050565b600067ffffffffffffffff821115610a1157610a1061097b565b5b610a1a8261096a565b9050602081019050919050565b82818337600083830152505050565b6000610a49610a44846109f6565b6109db565b905082815260208101848484011115610a6557610a64610965565b5b610a70848285610a27565b509392505050565b600082601f830112610a8d57610a8c610960565b5b8135610a9d848260208601610a36565b91505092915050565b600080600080600080600060e0888a031215610ac557610ac46108c2565b5b6000610ad38a828b01610915565b9750506020610ae48a828b01610915565b9650506040610af58a828b0161094b565b955050606088013567ffffffffffffffff811115610b1657610b156108c7565b5b610b228a828b01610a78565b9450506080610b338a828b0161094b565b93505060a088013567ffffffffffffffff811115610b5457610b536108c7565b5b610b608a828b01610a78565b92505060c0610b718a828b0161094b565b91505092959891949750929550565b600080600080600080600080610100898b031215610ba157610ba06108c2565b5b6000610baf8b828c01610915565b9850506020610bc08b828c01610915565b9750506040610bd18b828c0161094b565b965050606089013567ffffffffffffffff811115610bf257610bf16108c7565b5b610bfe8b828c01610a78565b9550506080610c0f8b828c0161094b565b94505060a089013567ffffffffffffffff811115610c3057610c2f6108c7565b5b610c3c8b828c01610a78565b93505060c0610c4d8b828c0161094b565b92505060e089013567ffffffffffffffff811115610c6e57610c6d6108c7565b5b610c7a8b828c01610a78565b9150509295985092959890939650565b60008060408385031215610ca157610ca06108c2565b5b6000610caf85828601610915565b9250506020610cc085828601610915565b9150509250929050565b600080600080600080600080610100898b031215610ceb57610cea6108c2565b5b6000610cf98b828c01610915565b9850506020610d0a8b828c01610915565b9750506040610d1b8b828c0161094b565b9650506060610d2c8b828c0161094b565b955050608089013567ffffffffffffffff811115610d4d57610d4c6108c7565b5b610d598b828c01610a78565b94505060a0610d6a8b828c0161094b565b93505060c089013567ffffffffffffffff811115610d8b57610d8a6108c7565b5b610d978b828c01610a78565b92505060e0610da88b828c0161094b565b9150509295985092959890939650565b6000806000806000806000806000806101408b8d031215610ddc57610ddb6108c2565b5b6000610dea8d828e01610915565b9a50506020610dfb8d828e01610915565b9950506040610e0c8d828e01610915565b9850506060610e1d8d828e01610915565b9750506080610e2e8d828e0161094b565b96505060a08b013567ffffffffffffffff811115610e4f57610e4e6108c7565b5b610e5b8d828e01610a78565b95505060c0610e6c8d828e0161094b565b94505060e08b013567ffffffffffffffff811115610e8d57610e8c6108c7565b5b610e998d828e01610a78565b935050610100610eab8d828e0161094b565b9250506101208b013567ffffffffffffffff811115610ecd57610ecc6108c7565b5b610ed98d828e01610a78565b9150509295989b9194979a5092959850565b600082825260208201905092915050565b7f4143434553532044454e4945442c204e4f5420524543455054494f4e49535400600082015250565b6000610f32601f83610eeb565b9150610f3d82610efc565b602082019050919050565b60006020820190508181036000830152610f6181610f25565b9050919050565b610f71816108ec565b82525050565b610f808161092a565b82525050565b600081519050919050565b60005b83811015610faf578082015181840152602081019050610f94565b83811115610fbe576000848401525b50505050565b6000610fcf82610f86565b610fd98185610eeb565b9350610fe9818560208601610f91565b610ff28161096a565b840191505092915050565b600060c0820190506110126000830189610f68565b61101f6020830188610f77565b81810360408301526110318187610fc4565b90506110406060830186610f77565b81810360808301526110528185610fc4565b905061106160a0830184610f77565b979650505050505050565b600060e082019050611081600083018a610f68565b61108e6020830189610f77565b81810360408301526110a08188610fc4565b90506110af6060830187610f77565b81810360808301526110c18186610fc4565b90506110d060a0830185610f77565b81810360c08301526110e28184610fc4565b905098975050505050505050565b60006020820190506111056000830184610f68565b92915050565b600060e082019050611120600083018a610f68565b61112d6020830189610f77565b61113a6040830188610f77565b818103606083015261114c8187610fc4565b905061115b6080830186610f77565b81810360a083015261116d8185610fc4565b905061117c60c0830184610f77565b98975050505050505050565b60006101208201905061119e600083018c610f68565b6111ab602083018b610f68565b6111b8604083018a610f68565b6111c56060830189610f77565b81810360808301526111d78188610fc4565b90506111e660a0830187610f77565b81810360c08301526111f88186610fc4565b905061120760e0830185610f77565b81810361010083015261121a8184610fc4565b90509a995050505050505050505056fea2646970667358221220ff119343c87ae10de60174983862dd9674b7ed487b041298d7147ac6b2ca0fed64736f6c634300080f0033",
  "immutableReferences": {},
  "source": "// SPDX-License-Identifier: MIT\r\npragma solidity >=0.4.22 <0.9.0;\r\nimport './Pharmacy.sol'; // To Access Pharmacy's Functions\r\nimport './Laboratory.sol';\r\nimport './Nurse.sol';\r\nimport './_Attendant.sol';\r\nimport './_Patient.sol';\r\nimport './Doctor.sol';\r\n\r\n\r\ncontract Receptionist{\r\n    address receptionist;\r\n    constructor() {\r\n        receptionist= 0xd5f766E8F18E87F635D5C125dba0949078f71dc3;\r\n    }\r\n    modifier isRecep(){\r\n        require(msg.sender == receptionist,\"ACCESS DENIED, NOT RECEPTIONIST\");\r\n        _;\r\n    }\r\n\r\n    //  Add Patient\r\n    function add_patient(address _Contract,address _DoctorContract, address _AttendantContract, address pat_address,uint _pat_id, string memory Name, uint Age, string memory Gender, uint Phone_no, string memory Date) public isRecep{\r\n        _Patient P = _Patient(_Contract);\r\n        P.addPatient(_DoctorContract,_AttendantContract,pat_address,_pat_id,Name,Age,Gender,Phone_no,Date);\r\n    }\r\n\r\n    // Add Attendant\r\n    function add_attendant(address _Contract, address _adss, uint _id, string memory _name, uint _age, string memory _gender, uint _phone_no) public isRecep{\r\n        _Attendant A = _Attendant(_Contract);\r\n        A.addAttendant(_adss,_id,_name,_age,_gender,_phone_no);\r\n    }\r\n    // Assign Attendant\r\n    function assign_attendant(address _Contract,address _address, uint _pat_id, uint _at_id,string memory _name, uint _age, string memory _gender, uint _phone_no ) public isRecep{\r\n        _Patient P = _Patient(_Contract);\r\n        P.assignAttendant(_address,_pat_id,_at_id,_name,_age,_gender,_phone_no);\r\n\r\n    }\r\n\r\n    // Add Doctor\r\n    function add_doctor(address _Contract, address _address, uint _id, string memory _name, uint _age, string memory _gender, uint _phone_no, string memory _date)public isRecep{\r\n        Doctor D = Doctor(_Contract);\r\n        D.addDoc(_address,_id,_name,_age,_gender,_phone_no, _date);\r\n    }\r\n\r\n    // Add Pharmacy, We are passing Deployed Contract address and new pharmacy address.\r\n    function add_pharma(address _Contract, address _address) public isRecep{\r\n        Pharmacy P = Pharmacy(_Contract);\r\n        P.setPharma(_address);\r\n    }\r\n\r\n    // Adding New Laboratory Address.\r\n    function add_lab(address _Contract, address _address) public isRecep{\r\n        Laboratory L = Laboratory(_Contract);\r\n        L.addLab(_address);\r\n    }\r\n\r\n    // Adding New Nurse.\r\n    function add_nurse(address _Contract, address _address,uint _id, string memory _name, uint _age, string memory _gender, uint _phone_no, string memory _date) public isRecep{\r\n        Nurse N = Nurse(_Contract);\r\n        N.addNurse(_address, _id, _name, _age, _gender, _phone_no, _date);\r\n    }\r\n\r\n\r\n}",
  "sourcePath": "D:\\Storage\\Extras\\College_Material\\Project\\home-mgmt\\contracts\\Receptionist.sol",
  "compiler": {
    "name": "solc",
    "version": "0.8.15+commit.e14f2714.Emscripten.clang"
  },
  "schemaVersion": "3.4.8",
  "updatedAt": "2022-08-19T21:05:35.996Z",
  "devdoc": {
    "kind": "dev",
    "methods": {},
    "version": 1
  },
  "userdoc": {
    "kind": "user",
    "methods": {},
    "version": 1
  }
}